{
  "contractName": "SolnSquareVerifier",
  "abi": [
    {
      "anonymous": false,
      "inputs": [
        {
          "indexed": true,
          "internalType": "address",
          "name": "owner",
          "type": "address"
        },
        {
          "indexed": true,
          "internalType": "address",
          "name": "approved",
          "type": "address"
        },
        {
          "indexed": true,
          "internalType": "uint256",
          "name": "tokenId",
          "type": "uint256"
        }
      ],
      "name": "Approval",
      "type": "event"
    },
    {
      "anonymous": false,
      "inputs": [
        {
          "indexed": true,
          "internalType": "address",
          "name": "owner",
          "type": "address"
        },
        {
          "indexed": true,
          "internalType": "address",
          "name": "operator",
          "type": "address"
        },
        {
          "indexed": false,
          "internalType": "bool",
          "name": "approved",
          "type": "bool"
        }
      ],
      "name": "ApprovalForAll",
      "type": "event"
    },
    {
      "anonymous": false,
      "inputs": [
        {
          "indexed": false,
          "internalType": "address",
          "name": "oldOwner",
          "type": "address"
        },
        {
          "indexed": false,
          "internalType": "address",
          "name": "newOwner",
          "type": "address"
        }
      ],
      "name": "OwnerTransfered",
      "type": "event"
    },
    {
      "anonymous": false,
      "inputs": [
        {
          "indexed": false,
          "internalType": "address",
          "name": "account",
          "type": "address"
        }
      ],
      "name": "Paused",
      "type": "event"
    },
    {
      "anonymous": false,
      "inputs": [],
      "name": "SolutionAdded",
      "type": "event"
    },
    {
      "anonymous": false,
      "inputs": [
        {
          "indexed": true,
          "internalType": "address",
          "name": "from",
          "type": "address"
        },
        {
          "indexed": true,
          "internalType": "address",
          "name": "to",
          "type": "address"
        },
        {
          "indexed": true,
          "internalType": "uint256",
          "name": "tokenId",
          "type": "uint256"
        }
      ],
      "name": "Transfer",
      "type": "event"
    },
    {
      "anonymous": false,
      "inputs": [
        {
          "indexed": false,
          "internalType": "address",
          "name": "account",
          "type": "address"
        }
      ],
      "name": "Unpaused",
      "type": "event"
    },
    {
      "inputs": [
        {
          "internalType": "address",
          "name": "to",
          "type": "address"
        },
        {
          "internalType": "uint256",
          "name": "tokenId",
          "type": "uint256"
        }
      ],
      "name": "approve",
      "outputs": [],
      "stateMutability": "nonpayable",
      "type": "function"
    },
    {
      "inputs": [
        {
          "internalType": "address",
          "name": "owner",
          "type": "address"
        }
      ],
      "name": "balanceOf",
      "outputs": [
        {
          "internalType": "uint256",
          "name": "",
          "type": "uint256"
        }
      ],
      "stateMutability": "view",
      "type": "function"
    },
    {
      "inputs": [],
      "name": "baseTokenURI",
      "outputs": [
        {
          "internalType": "string",
          "name": "",
          "type": "string"
        }
      ],
      "stateMutability": "view",
      "type": "function"
    },
    {
      "inputs": [
        {
          "internalType": "uint256",
          "name": "tokenId",
          "type": "uint256"
        }
      ],
      "name": "getApproved",
      "outputs": [
        {
          "internalType": "address",
          "name": "",
          "type": "address"
        }
      ],
      "stateMutability": "view",
      "type": "function"
    },
    {
      "inputs": [
        {
          "internalType": "address",
          "name": "owner",
          "type": "address"
        },
        {
          "internalType": "address",
          "name": "operator",
          "type": "address"
        }
      ],
      "name": "isApprovedForAll",
      "outputs": [
        {
          "internalType": "bool",
          "name": "",
          "type": "bool"
        }
      ],
      "stateMutability": "view",
      "type": "function"
    },
    {
      "inputs": [
        {
          "internalType": "address",
          "name": "to",
          "type": "address"
        },
        {
          "internalType": "uint256",
          "name": "tokenId",
          "type": "uint256"
        }
      ],
      "name": "mint",
      "outputs": [],
      "stateMutability": "nonpayable",
      "type": "function"
    },
    {
      "inputs": [],
      "name": "name",
      "outputs": [
        {
          "internalType": "string",
          "name": "",
          "type": "string"
        }
      ],
      "stateMutability": "view",
      "type": "function"
    },
    {
      "inputs": [],
      "name": "owner",
      "outputs": [
        {
          "internalType": "address",
          "name": "",
          "type": "address"
        }
      ],
      "stateMutability": "view",
      "type": "function"
    },
    {
      "inputs": [
        {
          "internalType": "uint256",
          "name": "tokenId",
          "type": "uint256"
        }
      ],
      "name": "ownerOf",
      "outputs": [
        {
          "internalType": "address",
          "name": "",
          "type": "address"
        }
      ],
      "stateMutability": "view",
      "type": "function"
    },
    {
      "inputs": [
        {
          "internalType": "address",
          "name": "from",
          "type": "address"
        },
        {
          "internalType": "address",
          "name": "to",
          "type": "address"
        },
        {
          "internalType": "uint256",
          "name": "tokenId",
          "type": "uint256"
        }
      ],
      "name": "safeTransferFrom",
      "outputs": [],
      "stateMutability": "nonpayable",
      "type": "function"
    },
    {
      "inputs": [
        {
          "internalType": "address",
          "name": "from",
          "type": "address"
        },
        {
          "internalType": "address",
          "name": "to",
          "type": "address"
        },
        {
          "internalType": "uint256",
          "name": "tokenId",
          "type": "uint256"
        },
        {
          "internalType": "bytes",
          "name": "_data",
          "type": "bytes"
        }
      ],
      "name": "safeTransferFrom",
      "outputs": [],
      "stateMutability": "nonpayable",
      "type": "function"
    },
    {
      "inputs": [
        {
          "internalType": "address",
          "name": "to",
          "type": "address"
        },
        {
          "internalType": "bool",
          "name": "approved",
          "type": "bool"
        }
      ],
      "name": "setApprovalForAll",
      "outputs": [],
      "stateMutability": "nonpayable",
      "type": "function"
    },
    {
      "inputs": [
        {
          "internalType": "bool",
          "name": "pause",
          "type": "bool"
        }
      ],
      "name": "setPaused",
      "outputs": [],
      "stateMutability": "nonpayable",
      "type": "function"
    },
    {
      "inputs": [
        {
          "internalType": "bytes4",
          "name": "interfaceId",
          "type": "bytes4"
        }
      ],
      "name": "supportsInterface",
      "outputs": [
        {
          "internalType": "bool",
          "name": "",
          "type": "bool"
        }
      ],
      "stateMutability": "view",
      "type": "function"
    },
    {
      "inputs": [],
      "name": "symbol",
      "outputs": [
        {
          "internalType": "string",
          "name": "",
          "type": "string"
        }
      ],
      "stateMutability": "view",
      "type": "function"
    },
    {
      "inputs": [
        {
          "internalType": "uint256",
          "name": "index",
          "type": "uint256"
        }
      ],
      "name": "tokenByIndex",
      "outputs": [
        {
          "internalType": "uint256",
          "name": "",
          "type": "uint256"
        }
      ],
      "stateMutability": "view",
      "type": "function"
    },
    {
      "inputs": [
        {
          "internalType": "address",
          "name": "owner",
          "type": "address"
        },
        {
          "internalType": "uint256",
          "name": "index",
          "type": "uint256"
        }
      ],
      "name": "tokenOfOwnerByIndex",
      "outputs": [
        {
          "internalType": "uint256",
          "name": "",
          "type": "uint256"
        }
      ],
      "stateMutability": "view",
      "type": "function"
    },
    {
      "inputs": [
        {
          "internalType": "uint256",
          "name": "tokenId",
          "type": "uint256"
        }
      ],
      "name": "tokenURI",
      "outputs": [
        {
          "internalType": "string",
          "name": "",
          "type": "string"
        }
      ],
      "stateMutability": "view",
      "type": "function"
    },
    {
      "inputs": [],
      "name": "totalSupply",
      "outputs": [
        {
          "internalType": "uint256",
          "name": "",
          "type": "uint256"
        }
      ],
      "stateMutability": "view",
      "type": "function"
    },
    {
      "inputs": [
        {
          "internalType": "address",
          "name": "from",
          "type": "address"
        },
        {
          "internalType": "address",
          "name": "to",
          "type": "address"
        },
        {
          "internalType": "uint256",
          "name": "tokenId",
          "type": "uint256"
        }
      ],
      "name": "transferFrom",
      "outputs": [],
      "stateMutability": "nonpayable",
      "type": "function"
    },
    {
      "inputs": [
        {
          "internalType": "address",
          "name": "newOwner",
          "type": "address"
        }
      ],
      "name": "transferOwnership",
      "outputs": [],
      "stateMutability": "nonpayable",
      "type": "function"
    },
    {
      "inputs": [],
      "name": "addSolution",
      "outputs": [],
      "stateMutability": "nonpayable",
      "type": "function"
    },
    {
      "inputs": [],
      "name": "mintNFT",
      "outputs": [],
      "stateMutability": "nonpayable",
      "type": "function"
    }
  ],
  "bytecode": "0x60806040523480156200001157600080fd5b506040518060400160405280601081526020017f5265616c20537461746520546f6b656e000000000000000000000000000000008152506040518060400160405280600381526020017f52535400000000000000000000000000000000000000000000000000000000008152506040518060600160405280603f8152602001620032a1603f9139620000a9336200016260201b60201c565b60008060146101000a81548160ff021916908315150217905550620000db6301ffc9a760e01b6200020060201b60201c565b620000f36380ac58cd60e01b6200020060201b60201c565b6200010b63780e9d6360e01b6200020060201b60201c565b82600f90816200011c919062000519565b5081601090816200012e919062000519565b50806011908162000140919062000519565b5062000159635b5e139f60e01b6200020060201b60201c565b50505062000672565b7f06efdecdd31c4bac6304b013412b81d6c3cccf803b5808a2e6f07374bd3001d060008054906101000a900473ffffffffffffffffffffffffffffffffffffffff1682604051620001b592919062000645565b60405180910390a1806000806101000a81548173ffffffffffffffffffffffffffffffffffffffff021916908373ffffffffffffffffffffffffffffffffffffffff16021790555050565b63ffffffff60e01b817bffffffffffffffffffffffffffffffffffffffffffffffffffffffff1916036200023357600080fd5b6001806000837bffffffffffffffffffffffffffffffffffffffffffffffffffffffff19167bffffffffffffffffffffffffffffffffffffffffffffffffffffffff1916815260200190815260200160002060006101000a81548160ff02191690831515021790555050565b600081519050919050565b7f4e487b7100000000000000000000000000000000000000000000000000000000600052604160045260246000fd5b7f4e487b7100000000000000000000000000000000000000000000000000000000600052602260045260246000fd5b600060028204905060018216806200032157607f821691505b602082108103620003375762000336620002d9565b5b50919050565b60008190508160005260206000209050919050565b60006020601f8301049050919050565b600082821b905092915050565b600060088302620003a17fffffffffffffffffffffffffffffffffffffffffffffffffffffffffffffffff8262000362565b620003ad868362000362565b95508019841693508086168417925050509392505050565b6000819050919050565b6000819050919050565b6000620003fa620003f4620003ee84620003c5565b620003cf565b620003c5565b9050919050565b6000819050919050565b6200041683620003d9565b6200042e620004258262000401565b8484546200036f565b825550505050565b600090565b6200044562000436565b620004528184846200040b565b505050565b5b818110156200047a576200046e6000826200043b565b60018101905062000458565b5050565b601f821115620004c95762000493816200033d565b6200049e8462000352565b81016020851015620004ae578190505b620004c6620004bd8562000352565b83018262000457565b50505b505050565b600082821c905092915050565b6000620004ee60001984600802620004ce565b1980831691505092915050565b6000620005098383620004db565b9150826002028217905092915050565b62000524826200029f565b67ffffffffffffffff81111562000540576200053f620002aa565b5b6200054c825462000308565b620005598282856200047e565b600060209050601f8311600181146200059157600084156200057c578287015190505b620005888582620004fb565b865550620005f8565b601f198416620005a1866200033d565b60005b82811015620005cb57848901518255600182019150602085019450602081019050620005a4565b86831015620005eb5784890151620005e7601f891682620004db565b8355505b6001600288020188555050505b505050505050565b600073ffffffffffffffffffffffffffffffffffffffff82169050919050565b60006200062d8262000600565b9050919050565b6200063f8162000620565b82525050565b60006040820190506200065c600083018562000634565b6200066b602083018462000634565b9392505050565b612c1f80620006826000396000f3fe608060405234801561001057600080fd5b506004361061014d5760003560e01c806342842e0e116100c3578063a22cb4651161007c578063a22cb4651461038a578063b88d4fde146103a6578063c87b56dd146103c2578063d547cfb7146103f2578063e985e9c514610410578063f2fde38b146104405761014d565b806342842e0e146102a25780634f6ccce7146102be5780636352211e146102ee57806370a082311461031e5780638da5cb5b1461034e57806395d89b411461036c5761014d565b806316c38b3c1161011557806316c38b3c146101f657806318160ddd1461021257806323b872dd146102305780632f745c591461024c5780633adf31e91461027c57806340c10f19146102865761014d565b806301ffc9a71461015257806306fdde0314610182578063081812fc146101a0578063095ea7b3146101d057806314f710fe146101ec575b600080fd5b61016c60048036038101906101679190611d51565b61045c565b6040516101799190611d99565b60405180910390f35b61018a6104c4565b6040516101979190611e44565b60405180910390f35b6101ba60048036038101906101b59190611e9c565b610556565b6040516101c79190611f0a565b60405180910390f35b6101ea60048036038101906101e59190611f51565b610593565b005b6101f461073f565b005b610210600480360381019061020b9190611fbd565b610741565b005b61021a610866565b6040516102279190611ff9565b60405180910390f35b61024a60048036038101906102459190612014565b610873565b005b61026660048036038101906102619190611f51565b610896565b6040516102739190611ff9565b60405180910390f35b610284610910565b005b6102a0600480360381019061029b9190611f51565b61093e565b005b6102bc60048036038101906102b79190612014565b6109e3565b005b6102d860048036038101906102d39190611e9c565b610a03565b6040516102e59190611ff9565b60405180910390f35b61030860048036038101906103039190611e9c565b610a3e565b6040516103159190611f0a565b60405180910390f35b61033860048036038101906103339190612067565b610a7b565b6040516103459190611ff9565b60405180910390f35b610356610acb565b6040516103639190611f0a565b60405180910390f35b610374610af4565b6040516103819190611e44565b60405180910390f35b6103a4600480360381019061039f9190612094565b610b86565b005b6103c060048036038101906103bb9190612209565b610cbb565b005b6103dc60048036038101906103d79190611e9c565b610ce1565b6040516103e99190611e44565b60405180910390f35b6103fa610d98565b6040516104079190611e44565b60405180910390f35b61042a6004803603810190610425919061228c565b610e2a565b6040516104379190611d99565b60405180910390f35b61045a60048036038101906104559190612067565b610ebe565b005b600060016000837bffffffffffffffffffffffffffffffffffffffffffffffffffffffff19167bffffffffffffffffffffffffffffffffffffffffffffffffffffffff1916815260200190815260200160002060009054906101000a900460ff169050919050565b6060600f80546104d3906122fb565b80601f01602080910402602001604051908101604052809291908181526020018280546104ff906122fb565b801561054c5780601f106105215761010080835404028352916020019161054c565b820191906000526020600020905b81548152906001019060200180831161052f57829003601f168201915b5050505050905090565b60006003600083815260200190815260200160002060009054906101000a900473ffffffffffffffffffffffffffffffffffffffff169050919050565b600061059e82610a3e565b90508273ffffffffffffffffffffffffffffffffffffffff168173ffffffffffffffffffffffffffffffffffffffff160361060e576040517f08c379a000000000000000000000000000000000000000000000000000000000815260040161060590612378565b60405180910390fd5b3373ffffffffffffffffffffffffffffffffffffffff168173ffffffffffffffffffffffffffffffffffffffff16148061064e575061064d8133610e2a565b5b61068d576040517f08c379a0000000000000000000000000000000000000000000000000000000008152600401610684906123e4565b60405180910390fd5b826003600084815260200190815260200160002060006101000a81548173ffffffffffffffffffffffffffffffffffffffff021916908373ffffffffffffffffffffffffffffffffffffffff160217905550818373ffffffffffffffffffffffffffffffffffffffff168273ffffffffffffffffffffffffffffffffffffffff167f8c5be1e5ebec7d5bd14f71427d1e84f3dd0314c0f7b2291e5b200ac8c7c3b92560405160405180910390a4505050565b565b60008054906101000a900473ffffffffffffffffffffffffffffffffffffffff1673ffffffffffffffffffffffffffffffffffffffff163373ffffffffffffffffffffffffffffffffffffffff16146107cf576040517f08c379a00000000000000000000000000000000000000000000000000000000081526004016107c690612450565b60405180910390fd5b80600060146101000a81548160ff021916908315150217905550801561082b577f62e78cea01bee320cd4e420270b5ea74000d11b0c9f74754ebdbfc544b05a2583360405161081e9190611f0a565b60405180910390a1610863565b7f5db9ee0a495bf2e6ff9c91a7834c1ba4fdd244a5e8aa4e537bd38aeae4b073aa3360405161085a9190611f0a565b60405180910390a15b50565b6000600880549050905090565b61087d3382610fc7565b61088657600080fd5b61089183838361105c565b505050565b60006108a183610a7b565b82106108ac57600080fd5b600660008473ffffffffffffffffffffffffffffffffffffffff1673ffffffffffffffffffffffffffffffffffffffff16815260200190815260200160002082815481106108fd576108fc612470565b5b9060005260206000200154905092915050565b7f77cd7d3cd964bb1589f38a348f5e30078d5b599630eb9731a9ce218840f8e55260405160405180910390a1565b60008054906101000a900473ffffffffffffffffffffffffffffffffffffffff1673ffffffffffffffffffffffffffffffffffffffff163373ffffffffffffffffffffffffffffffffffffffff16146109cc576040517f08c379a00000000000000000000000000000000000000000000000000000000081526004016109c390612450565b60405180910390fd5b6109d68282611080565b6109df816110a1565b5050565b6109fe83838360405180602001604052806000815250610cbb565b505050565b6000610a0d610866565b8210610a1857600080fd5b60088281548110610a2c57610a2b612470565b5b90600052602060002001549050919050565b60006002600083815260200190815260200160002060009054906101000a900473ffffffffffffffffffffffffffffffffffffffff169050919050565b6000610ac4600460008473ffffffffffffffffffffffffffffffffffffffff1673ffffffffffffffffffffffffffffffffffffffff168152602001908152602001600020611137565b9050919050565b60008060009054906101000a900473ffffffffffffffffffffffffffffffffffffffff16905090565b606060108054610b03906122fb565b80601f0160208091040260200160405190810160405280929190818152602001828054610b2f906122fb565b8015610b7c5780601f10610b5157610100808354040283529160200191610b7c565b820191906000526020600020905b815481529060010190602001808311610b5f57829003601f168201915b5050505050905090565b3373ffffffffffffffffffffffffffffffffffffffff168273ffffffffffffffffffffffffffffffffffffffff1603610bbe57600080fd5b80600560003373ffffffffffffffffffffffffffffffffffffffff1673ffffffffffffffffffffffffffffffffffffffff16815260200190815260200160002060008473ffffffffffffffffffffffffffffffffffffffff1673ffffffffffffffffffffffffffffffffffffffff16815260200190815260200160002060006101000a81548160ff0219169083151502179055508173ffffffffffffffffffffffffffffffffffffffff163373ffffffffffffffffffffffffffffffffffffffff167f17307eab39ab6107e8899845ad3d59bd9653f200f220920489ca2b5937696c3183604051610caf9190611d99565b60405180910390a35050565b610cc6848484610873565b610cd284848484611145565b610cdb57600080fd5b50505050565b6060610cec8261124d565b610cf557600080fd5b601260008381526020019081526020016000208054610d13906122fb565b80601f0160208091040260200160405190810160405280929190818152602001828054610d3f906122fb565b8015610d8c5780601f10610d6157610100808354040283529160200191610d8c565b820191906000526020600020905b815481529060010190602001808311610d6f57829003601f168201915b50505050509050919050565b606060118054610da7906122fb565b80601f0160208091040260200160405190810160405280929190818152602001828054610dd3906122fb565b8015610e205780601f10610df557610100808354040283529160200191610e20565b820191906000526020600020905b815481529060010190602001808311610e0357829003601f168201915b5050505050905090565b6000600560008473ffffffffffffffffffffffffffffffffffffffff1673ffffffffffffffffffffffffffffffffffffffff16815260200190815260200160002060008373ffffffffffffffffffffffffffffffffffffffff1673ffffffffffffffffffffffffffffffffffffffff16815260200190815260200160002060009054906101000a900460ff16905092915050565b60008054906101000a900473ffffffffffffffffffffffffffffffffffffffff1673ffffffffffffffffffffffffffffffffffffffff163373ffffffffffffffffffffffffffffffffffffffff1614610f4c576040517f08c379a0000000000000000000000000000000000000000000000000000000008152600401610f4390612450565b60405180910390fd5b600073ffffffffffffffffffffffffffffffffffffffff168173ffffffffffffffffffffffffffffffffffffffff1603610fbb576040517f08c379a0000000000000000000000000000000000000000000000000000000008152600401610fb2906124eb565b60405180910390fd5b610fc4816112bf565b50565b600080610fd383610a3e565b90508073ffffffffffffffffffffffffffffffffffffffff168473ffffffffffffffffffffffffffffffffffffffff16148061104257508373ffffffffffffffffffffffffffffffffffffffff1661102a84610556565b73ffffffffffffffffffffffffffffffffffffffff16145b8061105357506110528185610e2a565b5b91505092915050565b61106783838361135b565b61107183826114df565b61107b828261169d565b505050565b61108a8282611761565b611094828261169d565b61109d81611912565b5050565b6110aa8161124d565b6110e9576040517f08c379a00000000000000000000000000000000000000000000000000000000081526004016110e090612557565b60405180910390fd5b60116110f48261195b565b60405160200161110592919061264b565b6040516020818303038152906040526012600083815260200190815260200160002090816111339190612806565b5050565b600081600001549050919050565b60006111668473ffffffffffffffffffffffffffffffffffffffff16611a29565b6111735760019050611245565b60008473ffffffffffffffffffffffffffffffffffffffff1663150b7a02338887876040518563ffffffff1660e01b81526004016111b4949392919061292d565b6020604051808303816000875af11580156111d3573d6000803e3d6000fd5b505050506040513d601f19601f820116820180604052508101906111f7919061298e565b905063150b7a0260e01b7bffffffffffffffffffffffffffffffffffffffffffffffffffffffff1916817bffffffffffffffffffffffffffffffffffffffffffffffffffffffff1916149150505b949350505050565b6000806002600084815260200190815260200160002060009054906101000a900473ffffffffffffffffffffffffffffffffffffffff169050600073ffffffffffffffffffffffffffffffffffffffff168173ffffffffffffffffffffffffffffffffffffffff161415915050919050565b7f06efdecdd31c4bac6304b013412b81d6c3cccf803b5808a2e6f07374bd3001d060008054906101000a900473ffffffffffffffffffffffffffffffffffffffff16826040516113109291906129bb565b60405180910390a1806000806101000a81548173ffffffffffffffffffffffffffffffffffffffff021916908373ffffffffffffffffffffffffffffffffffffffff16021790555050565b6113658382610fc7565b61136e57600080fd5b600073ffffffffffffffffffffffffffffffffffffffff168273ffffffffffffffffffffffffffffffffffffffff16036113dd576040517f08c379a00000000000000000000000000000000000000000000000000000000081526004016113d490612a30565b60405180910390fd5b6113e681611a4c565b816002600083815260200190815260200160002060006101000a81548173ffffffffffffffffffffffffffffffffffffffff021916908373ffffffffffffffffffffffffffffffffffffffff16021790555061147f600460008573ffffffffffffffffffffffffffffffffffffffff1673ffffffffffffffffffffffffffffffffffffffff168152602001908152602001600020611b0a565b808273ffffffffffffffffffffffffffffffffffffffff168473ffffffffffffffffffffffffffffffffffffffff167fddf252ad1be2c89b69c2b068fc378daa952ba7f163c4a11628f55a4df523b3ef60405160405180910390a4505050565b60006115376001600660008673ffffffffffffffffffffffffffffffffffffffff1673ffffffffffffffffffffffffffffffffffffffff16815260200190815260200160002080549050611b6690919063ffffffff16565b9050600060076000848152602001908152602001600020549050818114611632576000600660008673ffffffffffffffffffffffffffffffffffffffff1673ffffffffffffffffffffffffffffffffffffffff16815260200190815260200160002083815481106115ab576115aa612470565b5b9060005260206000200154905080600660008773ffffffffffffffffffffffffffffffffffffffff1673ffffffffffffffffffffffffffffffffffffffff168152602001908152602001600020838154811061160a57611609612470565b5b9060005260206000200181905550816007600083815260200190815260200160002081905550505b600660008573ffffffffffffffffffffffffffffffffffffffff1673ffffffffffffffffffffffffffffffffffffffff16815260200190815260200160002080548061168157611680612a50565b5b6001900381819060005260206000200160009055905550505050565b600660008373ffffffffffffffffffffffffffffffffffffffff1673ffffffffffffffffffffffffffffffffffffffff168152602001908152602001600020805490506007600083815260200190815260200160002081905550600660008373ffffffffffffffffffffffffffffffffffffffff1673ffffffffffffffffffffffffffffffffffffffff1681526020019081526020016000208190806001815401808255809150506001900390600052602060002001600090919091909150555050565b61176a8161124d565b156117aa576040517f08c379a00000000000000000000000000000000000000000000000000000000081526004016117a190612acb565b60405180910390fd5b600073ffffffffffffffffffffffffffffffffffffffff168273ffffffffffffffffffffffffffffffffffffffff1603611819576040517f08c379a000000000000000000000000000000000000000000000000000000000815260040161181090612a30565b60405180910390fd5b816002600083815260200190815260200160002060006101000a81548173ffffffffffffffffffffffffffffffffffffffff021916908373ffffffffffffffffffffffffffffffffffffffff1602179055506118b2600460008473ffffffffffffffffffffffffffffffffffffffff1673ffffffffffffffffffffffffffffffffffffffff168152602001908152602001600020611b7c565b808273ffffffffffffffffffffffffffffffffffffffff16600073ffffffffffffffffffffffffffffffffffffffff167fddf252ad1be2c89b69c2b068fc378daa952ba7f163c4a11628f55a4df523b3ef60405160405180910390a45050565b6008805490506009600083815260200190815260200160002081905550600881908060018154018082558091505060019003906000526020600020016000909190919091505550565b60606000600161196a84611b92565b01905060008167ffffffffffffffff811115611989576119886120de565b5b6040519080825280601f01601f1916602001820160405280156119bb5781602001600182028036833780820191505090505b509050600082602001820190505b600115611a1e578080600190039150507f3031323334353637383961626364656600000000000000000000000000000000600a86061a8153600a8581611a1257611a11612aeb565b5b049450600085036119c9575b819350505050919050565b6000808273ffffffffffffffffffffffffffffffffffffffff163b119050919050565b600073ffffffffffffffffffffffffffffffffffffffff166003600083815260200190815260200160002060009054906101000a900473ffffffffffffffffffffffffffffffffffffffff1673ffffffffffffffffffffffffffffffffffffffff1614611b075760006003600083815260200190815260200160002060006101000a81548173ffffffffffffffffffffffffffffffffffffffff021916908373ffffffffffffffffffffffffffffffffffffffff1602179055505b50565b60008160000154905060008111611b56576040517f08c379a0000000000000000000000000000000000000000000000000000000008152600401611b4d90612b66565b60405180910390fd5b6001810382600001819055505050565b60008183611b749190612bb5565b905092915050565b6001816000016000828254019250508190555050565b600080600090507a184f03e93ff9f4daa797ed6e38ed64bf6a1f0100000000000000008310611bf0577a184f03e93ff9f4daa797ed6e38ed64bf6a1f0100000000000000008381611be657611be5612aeb565b5b0492506040810190505b6d04ee2d6d415b85acef81000000008310611c2d576d04ee2d6d415b85acef81000000008381611c2357611c22612aeb565b5b0492506020810190505b662386f26fc100008310611c5c57662386f26fc100008381611c5257611c51612aeb565b5b0492506010810190505b6305f5e1008310611c85576305f5e1008381611c7b57611c7a612aeb565b5b0492506008810190505b6127108310611caa576127108381611ca057611c9f612aeb565b5b0492506004810190505b60648310611ccd5760648381611cc357611cc2612aeb565b5b0492506002810190505b600a8310611cdc576001810190505b80915050919050565b6000604051905090565b600080fd5b600080fd5b60007fffffffff0000000000000000000000000000000000000000000000000000000082169050919050565b611d2e81611cf9565b8114611d3957600080fd5b50565b600081359050611d4b81611d25565b92915050565b600060208284031215611d6757611d66611cef565b5b6000611d7584828501611d3c565b91505092915050565b60008115159050919050565b611d9381611d7e565b82525050565b6000602082019050611dae6000830184611d8a565b92915050565b600081519050919050565b600082825260208201905092915050565b60005b83811015611dee578082015181840152602081019050611dd3565b60008484015250505050565b6000601f19601f8301169050919050565b6000611e1682611db4565b611e208185611dbf565b9350611e30818560208601611dd0565b611e3981611dfa565b840191505092915050565b60006020820190508181036000830152611e5e8184611e0b565b905092915050565b6000819050919050565b611e7981611e66565b8114611e8457600080fd5b50565b600081359050611e9681611e70565b92915050565b600060208284031215611eb257611eb1611cef565b5b6000611ec084828501611e87565b91505092915050565b600073ffffffffffffffffffffffffffffffffffffffff82169050919050565b6000611ef482611ec9565b9050919050565b611f0481611ee9565b82525050565b6000602082019050611f1f6000830184611efb565b92915050565b611f2e81611ee9565b8114611f3957600080fd5b50565b600081359050611f4b81611f25565b92915050565b60008060408385031215611f6857611f67611cef565b5b6000611f7685828601611f3c565b9250506020611f8785828601611e87565b9150509250929050565b611f9a81611d7e565b8114611fa557600080fd5b50565b600081359050611fb781611f91565b92915050565b600060208284031215611fd357611fd2611cef565b5b6000611fe184828501611fa8565b91505092915050565b611ff381611e66565b82525050565b600060208201905061200e6000830184611fea565b92915050565b60008060006060848603121561202d5761202c611cef565b5b600061203b86828701611f3c565b935050602061204c86828701611f3c565b925050604061205d86828701611e87565b9150509250925092565b60006020828403121561207d5761207c611cef565b5b600061208b84828501611f3c565b91505092915050565b600080604083850312156120ab576120aa611cef565b5b60006120b985828601611f3c565b92505060206120ca85828601611fa8565b9150509250929050565b600080fd5b600080fd5b7f4e487b7100000000000000000000000000000000000000000000000000000000600052604160045260246000fd5b61211682611dfa565b810181811067ffffffffffffffff82111715612135576121346120de565b5b80604052505050565b6000612148611ce5565b9050612154828261210d565b919050565b600067ffffffffffffffff821115612174576121736120de565b5b61217d82611dfa565b9050602081019050919050565b82818337600083830152505050565b60006121ac6121a784612159565b61213e565b9050828152602081018484840111156121c8576121c76120d9565b5b6121d384828561218a565b509392505050565b600082601f8301126121f0576121ef6120d4565b5b8135612200848260208601612199565b91505092915050565b6000806000806080858703121561222357612222611cef565b5b600061223187828801611f3c565b945050602061224287828801611f3c565b935050604061225387828801611e87565b925050606085013567ffffffffffffffff81111561227457612273611cf4565b5b612280878288016121db565b91505092959194509250565b600080604083850312156122a3576122a2611cef565b5b60006122b185828601611f3c565b92505060206122c285828601611f3c565b9150509250929050565b7f4e487b7100000000000000000000000000000000000000000000000000000000600052602260045260246000fd5b6000600282049050600182168061231357607f821691505b602082108103612326576123256122cc565b5b50919050565b7f546869732061646472657373206f776e732074686520746f6b656e0000000000600082015250565b6000612362601b83611dbf565b915061236d8261232c565b602082019050919050565b6000602082019050818103600083015261239181612355565b9050919050565b7f4e6f7420616c6c6f776564000000000000000000000000000000000000000000600082015250565b60006123ce600b83611dbf565b91506123d982612398565b602082019050919050565b600060208201905081810360008301526123fd816123c1565b9050919050565b7f4f6e6c79206f776e657200000000000000000000000000000000000000000000600082015250565b600061243a600a83611dbf565b915061244582612404565b602082019050919050565b600060208201905081810360008301526124698161242d565b9050919050565b7f4e487b7100000000000000000000000000000000000000000000000000000000600052603260045260246000fd5b7f4e6f7420612076616c6964206164647265737300000000000000000000000000600082015250565b60006124d5601383611dbf565b91506124e08261249f565b602082019050919050565b60006020820190508181036000830152612504816124c8565b9050919050565b7f546f6b656e20646f6573206e6f74206578697374000000000000000000000000600082015250565b6000612541601483611dbf565b915061254c8261250b565b602082019050919050565b6000602082019050818103600083015261257081612534565b9050919050565b600081905092915050565b60008190508160005260206000209050919050565b600081546125a4816122fb565b6125ae8186612577565b945060018216600081146125c957600181146125de57612611565b60ff1983168652811515820286019350612611565b6125e785612582565b60005b83811015612609578154818901526001820191506020810190506125ea565b838801955050505b50505092915050565b600061262582611db4565b61262f8185612577565b935061263f818560208601611dd0565b80840191505092915050565b60006126578285612597565b9150612663828461261a565b91508190509392505050565b60006020601f8301049050919050565b600082821b905092915050565b6000600883026126bc7fffffffffffffffffffffffffffffffffffffffffffffffffffffffffffffffff8261267f565b6126c6868361267f565b95508019841693508086168417925050509392505050565b6000819050919050565b60006127036126fe6126f984611e66565b6126de565b611e66565b9050919050565b6000819050919050565b61271d836126e8565b6127316127298261270a565b84845461268c565b825550505050565b600090565b612746612739565b612751818484612714565b505050565b5b818110156127755761276a60008261273e565b600181019050612757565b5050565b601f8211156127ba5761278b81612582565b6127948461266f565b810160208510156127a3578190505b6127b76127af8561266f565b830182612756565b50505b505050565b600082821c905092915050565b60006127dd600019846008026127bf565b1980831691505092915050565b60006127f683836127cc565b9150826002028217905092915050565b61280f82611db4565b67ffffffffffffffff811115612828576128276120de565b5b61283282546122fb565b61283d828285612779565b600060209050601f831160018114612870576000841561285e578287015190505b61286885826127ea565b8655506128d0565b601f19841661287e86612582565b60005b828110156128a657848901518255600182019150602085019450602081019050612881565b868310156128c357848901516128bf601f8916826127cc565b8355505b6001600288020188555050505b505050505050565b600081519050919050565b600082825260208201905092915050565b60006128ff826128d8565b61290981856128e3565b9350612919818560208601611dd0565b61292281611dfa565b840191505092915050565b60006080820190506129426000830187611efb565b61294f6020830186611efb565b61295c6040830185611fea565b818103606083015261296e81846128f4565b905095945050505050565b60008151905061298881611d25565b92915050565b6000602082840312156129a4576129a3611cef565b5b60006129b284828501612979565b91505092915050565b60006040820190506129d06000830185611efb565b6129dd6020830184611efb565b9392505050565b7f496e76616c696420616464726573730000000000000000000000000000000000600082015250565b6000612a1a600f83611dbf565b9150612a25826129e4565b602082019050919050565b60006020820190508181036000830152612a4981612a0d565b9050919050565b7f4e487b7100000000000000000000000000000000000000000000000000000000600052603160045260246000fd5b7f546f6b656e20616c726561647920657869737473000000000000000000000000600082015250565b6000612ab5601483611dbf565b9150612ac082612a7f565b602082019050919050565b60006020820190508181036000830152612ae481612aa8565b9050919050565b7f4e487b7100000000000000000000000000000000000000000000000000000000600052601260045260246000fd5b7f436f756e7465723a2064656372656d656e74206f766572666c6f770000000000600082015250565b6000612b50601b83611dbf565b9150612b5b82612b1a565b602082019050919050565b60006020820190508181036000830152612b7f81612b43565b9050919050565b7f4e487b7100000000000000000000000000000000000000000000000000000000600052601160045260246000fd5b6000612bc082611e66565b9150612bcb83611e66565b9250828203905081811115612be357612be2612b86565b5b9291505056fea2646970667358221220ff4f5d24b781fb16e40ef826b820a413d6f399492b800df44cfb36dc3877246864736f6c6343000811003368747470733a2f2f73332d75732d776573742d322e616d617a6f6e6177732e636f6d2f756461636974792d626c6f636b636861696e2f63617073746f6e652f",
  "immutableReferences": {},
  "source": "// SPDX-License-Identifier: MIT\r\npragma solidity ^0.8.17;\r\n\r\n// TODO define a contract call to the zokrates generated solidity contract <Verifier> or <renamedVerifier>\r\nimport \"./ERC721Mintable.sol\";\r\nimport \"./Verifier.sol\";\r\n\r\n// TODO define another contract named SolnSquareVerifier that inherits from your ERC721Mintable class\r\ncontract SolnSquareVerifier is ERC721Mintable {\r\n\r\n    // TODO define a solutions struct that can hold an index & an address\r\n    struct Solution {\r\n        uint256 index;\r\n        address account;\r\n    }\r\n\r\n    // TODO define an array of the above struct\r\n    Solution[] private solutions;\r\n\r\n    // TODO define a mapping to store unique solutions submitted\r\n\r\n\r\n    // TODO Create an event to emit when a solution is added\r\n    event SolutionAdded();\r\n\r\n    // TODO Create a function to add the solutions to the array and emit the event\r\n    function addSolution() public {\r\n        emit SolutionAdded();\r\n    }\r\n\r\n    // TODO Create a function to mint new NFT only after the solution has been verified\r\n    //  - make sure the solution is unique (has not been used before)\r\n    //  - make sure you handle metadata as well as tokenSupply\r\n    function mintNFT() public {\r\n\r\n    }\r\n}\r\n  \r\n\r\n\r\n\r\n\r\n\r\n\r\n\r\n\r\n\r\n\r\n\r\n\r\n\r\n\r\n\r\n\r\n\r\n\r\n\r\n\r\n\r\n\r\n\r\n\r\n\r\n\r\n",
  "sourcePath": "C:\\Users\\Edward\\Desktop\\Project 5\\Blockchain-Capstone\\eth-contracts\\contracts\\SolnSquareVerifier.sol",
  "compiler": {
    "name": "solc",
    "version": "0.8.17+commit.8df45f5f.Emscripten.clang"
  },
  "schemaVersion": "3.4.11",
  "updatedAt": "2023-01-25T21:43:06.388Z",
  "devdoc": {
    "kind": "dev",
    "methods": {
      "approve(address,uint256)": {
        "details": "Approves another address to transfer the given token ID"
      },
      "isApprovedForAll(address,address)": {
        "details": "Tells whether an operator is approved by a given owner",
        "params": {
          "operator": "operator address which you want to query the approval of",
          "owner": "owner address which you want to query the approval of"
        },
        "returns": {
          "_0": "bool whether the given operator is approved by the given owner"
        }
      },
      "setApprovalForAll(address,bool)": {
        "details": "Sets or unsets the approval of a given operator An operator is allowed to transfer all tokens of the sender on their behalf",
        "params": {
          "approved": "representing the status of the approval to be set",
          "to": "operator address to set the approval"
        }
      },
      "supportsInterface(bytes4)": {
        "details": "implement supportsInterface(bytes4) using a lookup table"
      },
      "tokenByIndex(uint256)": {
        "details": "Gets the token ID at a given index of all the tokens in this contract Reverts if the index is greater or equal to the total number of tokens",
        "params": {
          "index": "uint256 representing the index to be accessed of the tokens list"
        },
        "returns": {
          "_0": "uint256 token ID at the given index of the tokens list"
        }
      },
      "tokenOfOwnerByIndex(address,uint256)": {
        "details": "Gets the token ID at a given index of the tokens list of the requested owner",
        "params": {
          "index": "uint256 representing the index to be accessed of the requested tokens list",
          "owner": "address owning the tokens list to be accessed"
        },
        "returns": {
          "_0": "uint256 token ID at the given index of the tokens list owned by the requested address"
        }
      },
      "totalSupply()": {
        "details": "Gets the total amount of tokens stored by the contract",
        "returns": {
          "_0": "uint256 representing the total amount of tokens"
        }
      }
    },
    "version": 1
  },
  "userdoc": {
    "kind": "user",
    "methods": {},
    "version": 1
  }
}