{
  "contractName": "SolnSquareVerifier",
  "abi": [
    {
      "inputs": [
        {
          "internalType": "address",
          "name": "verifierAddress",
          "type": "address"
        }
      ],
      "stateMutability": "nonpayable",
      "type": "constructor"
    },
    {
      "anonymous": false,
      "inputs": [
        {
          "indexed": true,
          "internalType": "address",
          "name": "owner",
          "type": "address"
        },
        {
          "indexed": true,
          "internalType": "address",
          "name": "approved",
          "type": "address"
        },
        {
          "indexed": true,
          "internalType": "uint256",
          "name": "tokenId",
          "type": "uint256"
        }
      ],
      "name": "Approval",
      "type": "event"
    },
    {
      "anonymous": false,
      "inputs": [
        {
          "indexed": true,
          "internalType": "address",
          "name": "owner",
          "type": "address"
        },
        {
          "indexed": true,
          "internalType": "address",
          "name": "operator",
          "type": "address"
        },
        {
          "indexed": false,
          "internalType": "bool",
          "name": "approved",
          "type": "bool"
        }
      ],
      "name": "ApprovalForAll",
      "type": "event"
    },
    {
      "anonymous": false,
      "inputs": [
        {
          "indexed": false,
          "internalType": "address",
          "name": "oldOwner",
          "type": "address"
        },
        {
          "indexed": false,
          "internalType": "address",
          "name": "newOwner",
          "type": "address"
        }
      ],
      "name": "OwnerTransfered",
      "type": "event"
    },
    {
      "anonymous": false,
      "inputs": [
        {
          "indexed": false,
          "internalType": "address",
          "name": "account",
          "type": "address"
        }
      ],
      "name": "Paused",
      "type": "event"
    },
    {
      "anonymous": false,
      "inputs": [
        {
          "indexed": false,
          "internalType": "bytes32",
          "name": "solutionKey",
          "type": "bytes32"
        },
        {
          "indexed": false,
          "internalType": "address",
          "name": "account",
          "type": "address"
        }
      ],
      "name": "SolutionAdded",
      "type": "event"
    },
    {
      "anonymous": false,
      "inputs": [
        {
          "indexed": true,
          "internalType": "address",
          "name": "from",
          "type": "address"
        },
        {
          "indexed": true,
          "internalType": "address",
          "name": "to",
          "type": "address"
        },
        {
          "indexed": true,
          "internalType": "uint256",
          "name": "tokenId",
          "type": "uint256"
        }
      ],
      "name": "Transfer",
      "type": "event"
    },
    {
      "anonymous": false,
      "inputs": [
        {
          "indexed": false,
          "internalType": "address",
          "name": "account",
          "type": "address"
        }
      ],
      "name": "Unpaused",
      "type": "event"
    },
    {
      "inputs": [
        {
          "internalType": "address",
          "name": "to",
          "type": "address"
        },
        {
          "internalType": "uint256",
          "name": "tokenId",
          "type": "uint256"
        }
      ],
      "name": "approve",
      "outputs": [],
      "stateMutability": "nonpayable",
      "type": "function"
    },
    {
      "inputs": [
        {
          "internalType": "address",
          "name": "owner",
          "type": "address"
        }
      ],
      "name": "balanceOf",
      "outputs": [
        {
          "internalType": "uint256",
          "name": "",
          "type": "uint256"
        }
      ],
      "stateMutability": "view",
      "type": "function",
      "constant": true
    },
    {
      "inputs": [],
      "name": "baseTokenURI",
      "outputs": [
        {
          "internalType": "string",
          "name": "",
          "type": "string"
        }
      ],
      "stateMutability": "view",
      "type": "function",
      "constant": true
    },
    {
      "inputs": [
        {
          "internalType": "uint256",
          "name": "tokenId",
          "type": "uint256"
        }
      ],
      "name": "getApproved",
      "outputs": [
        {
          "internalType": "address",
          "name": "",
          "type": "address"
        }
      ],
      "stateMutability": "view",
      "type": "function",
      "constant": true
    },
    {
      "inputs": [
        {
          "internalType": "address",
          "name": "owner",
          "type": "address"
        },
        {
          "internalType": "address",
          "name": "operator",
          "type": "address"
        }
      ],
      "name": "isApprovedForAll",
      "outputs": [
        {
          "internalType": "bool",
          "name": "",
          "type": "bool"
        }
      ],
      "stateMutability": "view",
      "type": "function",
      "constant": true
    },
    {
      "inputs": [
        {
          "internalType": "address",
          "name": "to",
          "type": "address"
        },
        {
          "internalType": "uint256",
          "name": "tokenId",
          "type": "uint256"
        }
      ],
      "name": "mint",
      "outputs": [],
      "stateMutability": "nonpayable",
      "type": "function"
    },
    {
      "inputs": [],
      "name": "name",
      "outputs": [
        {
          "internalType": "string",
          "name": "",
          "type": "string"
        }
      ],
      "stateMutability": "view",
      "type": "function",
      "constant": true
    },
    {
      "inputs": [],
      "name": "owner",
      "outputs": [
        {
          "internalType": "address",
          "name": "",
          "type": "address"
        }
      ],
      "stateMutability": "view",
      "type": "function",
      "constant": true
    },
    {
      "inputs": [
        {
          "internalType": "uint256",
          "name": "tokenId",
          "type": "uint256"
        }
      ],
      "name": "ownerOf",
      "outputs": [
        {
          "internalType": "address",
          "name": "",
          "type": "address"
        }
      ],
      "stateMutability": "view",
      "type": "function",
      "constant": true
    },
    {
      "inputs": [
        {
          "internalType": "address",
          "name": "from",
          "type": "address"
        },
        {
          "internalType": "address",
          "name": "to",
          "type": "address"
        },
        {
          "internalType": "uint256",
          "name": "tokenId",
          "type": "uint256"
        }
      ],
      "name": "safeTransferFrom",
      "outputs": [],
      "stateMutability": "nonpayable",
      "type": "function"
    },
    {
      "inputs": [
        {
          "internalType": "address",
          "name": "from",
          "type": "address"
        },
        {
          "internalType": "address",
          "name": "to",
          "type": "address"
        },
        {
          "internalType": "uint256",
          "name": "tokenId",
          "type": "uint256"
        },
        {
          "internalType": "bytes",
          "name": "_data",
          "type": "bytes"
        }
      ],
      "name": "safeTransferFrom",
      "outputs": [],
      "stateMutability": "nonpayable",
      "type": "function"
    },
    {
      "inputs": [
        {
          "internalType": "address",
          "name": "to",
          "type": "address"
        },
        {
          "internalType": "bool",
          "name": "approved",
          "type": "bool"
        }
      ],
      "name": "setApprovalForAll",
      "outputs": [],
      "stateMutability": "nonpayable",
      "type": "function"
    },
    {
      "inputs": [
        {
          "internalType": "bool",
          "name": "pause",
          "type": "bool"
        }
      ],
      "name": "setPaused",
      "outputs": [],
      "stateMutability": "nonpayable",
      "type": "function"
    },
    {
      "inputs": [
        {
          "internalType": "bytes4",
          "name": "interfaceId",
          "type": "bytes4"
        }
      ],
      "name": "supportsInterface",
      "outputs": [
        {
          "internalType": "bool",
          "name": "",
          "type": "bool"
        }
      ],
      "stateMutability": "view",
      "type": "function",
      "constant": true
    },
    {
      "inputs": [],
      "name": "symbol",
      "outputs": [
        {
          "internalType": "string",
          "name": "",
          "type": "string"
        }
      ],
      "stateMutability": "view",
      "type": "function",
      "constant": true
    },
    {
      "inputs": [
        {
          "internalType": "uint256",
          "name": "index",
          "type": "uint256"
        }
      ],
      "name": "tokenByIndex",
      "outputs": [
        {
          "internalType": "uint256",
          "name": "",
          "type": "uint256"
        }
      ],
      "stateMutability": "view",
      "type": "function",
      "constant": true
    },
    {
      "inputs": [
        {
          "internalType": "address",
          "name": "owner",
          "type": "address"
        },
        {
          "internalType": "uint256",
          "name": "index",
          "type": "uint256"
        }
      ],
      "name": "tokenOfOwnerByIndex",
      "outputs": [
        {
          "internalType": "uint256",
          "name": "",
          "type": "uint256"
        }
      ],
      "stateMutability": "view",
      "type": "function",
      "constant": true
    },
    {
      "inputs": [
        {
          "internalType": "uint256",
          "name": "tokenId",
          "type": "uint256"
        }
      ],
      "name": "tokenURI",
      "outputs": [
        {
          "internalType": "string",
          "name": "",
          "type": "string"
        }
      ],
      "stateMutability": "view",
      "type": "function",
      "constant": true
    },
    {
      "inputs": [],
      "name": "totalSupply",
      "outputs": [
        {
          "internalType": "uint256",
          "name": "",
          "type": "uint256"
        }
      ],
      "stateMutability": "view",
      "type": "function",
      "constant": true
    },
    {
      "inputs": [
        {
          "internalType": "address",
          "name": "from",
          "type": "address"
        },
        {
          "internalType": "address",
          "name": "to",
          "type": "address"
        },
        {
          "internalType": "uint256",
          "name": "tokenId",
          "type": "uint256"
        }
      ],
      "name": "transferFrom",
      "outputs": [],
      "stateMutability": "nonpayable",
      "type": "function"
    },
    {
      "inputs": [
        {
          "internalType": "address",
          "name": "newOwner",
          "type": "address"
        }
      ],
      "name": "transferOwnership",
      "outputs": [],
      "stateMutability": "nonpayable",
      "type": "function"
    },
    {
      "inputs": [
        {
          "internalType": "address",
          "name": "to",
          "type": "address"
        },
        {
          "internalType": "uint256",
          "name": "tokenId",
          "type": "uint256"
        },
        {
          "components": [
            {
              "components": [
                {
                  "internalType": "uint256",
                  "name": "X",
                  "type": "uint256"
                },
                {
                  "internalType": "uint256",
                  "name": "Y",
                  "type": "uint256"
                }
              ],
              "internalType": "struct Pairing.G1Point",
              "name": "a",
              "type": "tuple"
            },
            {
              "components": [
                {
                  "internalType": "uint256[2]",
                  "name": "X",
                  "type": "uint256[2]"
                },
                {
                  "internalType": "uint256[2]",
                  "name": "Y",
                  "type": "uint256[2]"
                }
              ],
              "internalType": "struct Pairing.G2Point",
              "name": "b",
              "type": "tuple"
            },
            {
              "components": [
                {
                  "internalType": "uint256",
                  "name": "X",
                  "type": "uint256"
                },
                {
                  "internalType": "uint256",
                  "name": "Y",
                  "type": "uint256"
                }
              ],
              "internalType": "struct Pairing.G1Point",
              "name": "c",
              "type": "tuple"
            }
          ],
          "internalType": "struct Verifier.Proof",
          "name": "proof",
          "type": "tuple"
        },
        {
          "internalType": "uint256[2]",
          "name": "input",
          "type": "uint256[2]"
        }
      ],
      "name": "mintNFT",
      "outputs": [],
      "stateMutability": "nonpayable",
      "type": "function"
    }
  ],
  "bytecode": "0x608060405260016014553480156200001657600080fd5b5060405162003c6c38038062003c6c83398181016040528101906200003c919062000375565b6040518060400160405280601081526020017f5265616c20537461746520546f6b656e000000000000000000000000000000008152506040518060400160405280600381526020017f52535400000000000000000000000000000000000000000000000000000000008152506040518060600160405280603f815260200162003c2d603f9139620000d333620001ce60201b60201c565b60008060146101000a81548160ff021916908315150217905550620001056301ffc9a760e01b6200026c60201b60201c565b6200011d6380ac58cd60e01b6200026c60201b60201c565b6200013563780e9d6360e01b6200026c60201b60201c565b82600f908162000146919062000621565b50816010908162000158919062000621565b5080601190816200016a919062000621565b5062000183635b5e139f60e01b6200026c60201b60201c565b50505080601360006101000a81548173ffffffffffffffffffffffffffffffffffffffff021916908373ffffffffffffffffffffffffffffffffffffffff1602179055505062000746565b7f06efdecdd31c4bac6304b013412b81d6c3cccf803b5808a2e6f07374bd3001d060008054906101000a900473ffffffffffffffffffffffffffffffffffffffff16826040516200022192919062000719565b60405180910390a1806000806101000a81548173ffffffffffffffffffffffffffffffffffffffff021916908373ffffffffffffffffffffffffffffffffffffffff16021790555050565b63ffffffff60e01b817bffffffffffffffffffffffffffffffffffffffffffffffffffffffff1916036200029f57600080fd5b6001806000837bffffffffffffffffffffffffffffffffffffffffffffffffffffffff19167bffffffffffffffffffffffffffffffffffffffffffffffffffffffff1916815260200190815260200160002060006101000a81548160ff02191690831515021790555050565b600080fd5b600073ffffffffffffffffffffffffffffffffffffffff82169050919050565b60006200033d8262000310565b9050919050565b6200034f8162000330565b81146200035b57600080fd5b50565b6000815190506200036f8162000344565b92915050565b6000602082840312156200038e576200038d6200030b565b5b60006200039e848285016200035e565b91505092915050565b600081519050919050565b7f4e487b7100000000000000000000000000000000000000000000000000000000600052604160045260246000fd5b7f4e487b7100000000000000000000000000000000000000000000000000000000600052602260045260246000fd5b600060028204905060018216806200042957607f821691505b6020821081036200043f576200043e620003e1565b5b50919050565b60008190508160005260206000209050919050565b60006020601f8301049050919050565b600082821b905092915050565b600060088302620004a97fffffffffffffffffffffffffffffffffffffffffffffffffffffffffffffffff826200046a565b620004b586836200046a565b95508019841693508086168417925050509392505050565b6000819050919050565b6000819050919050565b600062000502620004fc620004f684620004cd565b620004d7565b620004cd565b9050919050565b6000819050919050565b6200051e83620004e1565b620005366200052d8262000509565b84845462000477565b825550505050565b600090565b6200054d6200053e565b6200055a81848462000513565b505050565b5b8181101562000582576200057660008262000543565b60018101905062000560565b5050565b601f821115620005d1576200059b8162000445565b620005a6846200045a565b81016020851015620005b6578190505b620005ce620005c5856200045a565b8301826200055f565b50505b505050565b600082821c905092915050565b6000620005f660001984600802620005d6565b1980831691505092915050565b6000620006118383620005e3565b9150826002028217905092915050565b6200062c82620003a7565b67ffffffffffffffff811115620006485762000647620003b2565b5b62000654825462000410565b6200066182828562000586565b600060209050601f83116001811462000699576000841562000684578287015190505b62000690858262000603565b86555062000700565b601f198416620006a98662000445565b60005b82811015620006d357848901518255600182019150602085019450602081019050620006ac565b86831015620006f35784890151620006ef601f891682620005e3565b8355505b6001600288020188555050505b505050505050565b620007138162000330565b82525050565b600060408201905062000730600083018562000708565b6200073f602083018462000708565b9392505050565b6134d780620007566000396000f3fe608060405234801561001057600080fd5b50600436106101425760003560e01c80634f6ccce7116100b8578063a22cb4651161007c578063a22cb46514610387578063b88d4fde146103a3578063c87b56dd146103bf578063d547cfb7146103ef578063e985e9c51461040d578063f2fde38b1461043d57610142565b80634f6ccce7146102bb5780636352211e146102eb57806370a082311461031b5780638da5cb5b1461034b57806395d89b411461036957610142565b806318160ddd1161010a57806318160ddd146101fd5780631fd960da1461021b57806323b872dd146102375780632f745c591461025357806340c10f191461028357806342842e0e1461029f57610142565b806301ffc9a71461014757806306fdde0314610177578063081812fc14610195578063095ea7b3146101c557806316c38b3c146101e1575b600080fd5b610161600480360381019061015c9190611fbf565b610459565b60405161016e9190612007565b60405180910390f35b61017f6104c1565b60405161018c91906120b2565b60405180910390f35b6101af60048036038101906101aa919061210a565b610553565b6040516101bc9190612178565b60405180910390f35b6101df60048036038101906101da91906121bf565b610590565b005b6101fb60048036038101906101f6919061222b565b61073c565b005b610205610861565b6040516102129190612267565b60405180910390f35b610235600480360381019061023091906124c2565b61086e565b005b610251600480360381019061024c919061252b565b6109ea565b005b61026d600480360381019061026891906121bf565b610a0d565b60405161027a9190612267565b60405180910390f35b61029d600480360381019061029891906121bf565b610a87565b005b6102b960048036038101906102b4919061252b565b610b2c565b005b6102d560048036038101906102d0919061210a565b610b4c565b6040516102e29190612267565b60405180910390f35b6103056004803603810190610300919061210a565b610b87565b6040516103129190612178565b60405180910390f35b6103356004803603810190610330919061257e565b610bc4565b6040516103429190612267565b60405180910390f35b610353610c14565b6040516103609190612178565b60405180910390f35b610371610c3d565b60405161037e91906120b2565b60405180910390f35b6103a1600480360381019061039c91906125ab565b610ccf565b005b6103bd60048036038101906103b891906126a0565b610e04565b005b6103d960048036038101906103d4919061210a565b610e2a565b6040516103e691906120b2565b60405180910390f35b6103f7610ee1565b60405161040491906120b2565b60405180910390f35b61042760048036038101906104229190612723565b610f73565b6040516104349190612007565b60405180910390f35b6104576004803603810190610452919061257e565b611007565b005b600060016000837bffffffffffffffffffffffffffffffffffffffffffffffffffffffff19167bffffffffffffffffffffffffffffffffffffffffffffffffffffffff1916815260200190815260200160002060009054906101000a900460ff169050919050565b6060600f80546104d090612792565b80601f01602080910402602001604051908101604052809291908181526020018280546104fc90612792565b80156105495780601f1061051e57610100808354040283529160200191610549565b820191906000526020600020905b81548152906001019060200180831161052c57829003601f168201915b5050505050905090565b60006003600083815260200190815260200160002060009054906101000a900473ffffffffffffffffffffffffffffffffffffffff169050919050565b600061059b82610b87565b90508273ffffffffffffffffffffffffffffffffffffffff168173ffffffffffffffffffffffffffffffffffffffff160361060b576040517f08c379a00000000000000000000000000000000000000000000000000000000081526004016106029061280f565b60405180910390fd5b3373ffffffffffffffffffffffffffffffffffffffff168173ffffffffffffffffffffffffffffffffffffffff16148061064b575061064a8133610f73565b5b61068a576040517f08c379a00000000000000000000000000000000000000000000000000000000081526004016106819061287b565b60405180910390fd5b826003600084815260200190815260200160002060006101000a81548173ffffffffffffffffffffffffffffffffffffffff021916908373ffffffffffffffffffffffffffffffffffffffff160217905550818373ffffffffffffffffffffffffffffffffffffffff168273ffffffffffffffffffffffffffffffffffffffff167f8c5be1e5ebec7d5bd14f71427d1e84f3dd0314c0f7b2291e5b200ac8c7c3b92560405160405180910390a4505050565b60008054906101000a900473ffffffffffffffffffffffffffffffffffffffff1673ffffffffffffffffffffffffffffffffffffffff163373ffffffffffffffffffffffffffffffffffffffff16146107ca576040517f08c379a00000000000000000000000000000000000000000000000000000000081526004016107c1906128e7565b60405180910390fd5b80600060146101000a81548160ff0219169083151502179055508015610826577f62e78cea01bee320cd4e420270b5ea74000d11b0c9f74754ebdbfc544b05a258336040516108199190612178565b60405180910390a161085e565b7f5db9ee0a495bf2e6ff9c91a7834c1ba4fdd244a5e8aa4e537bd38aeae4b073aa336040516108559190612178565b60405180910390a15b50565b6000600880549050905090565b60008160405160200161088191906129b2565b60405160208183030381529060405280519060200120905060006015600083815260200190815260200160002060000154036108f2576040517f08c379a00000000000000000000000000000000000000000000000000000000081526004016108e990612a19565b60405180910390fd5b601360009054906101000a900473ffffffffffffffffffffffffffffffffffffffff1673ffffffffffffffffffffffffffffffffffffffff166343cd76fc84846040518363ffffffff1660e01b815260040161094f929190612bc5565b602060405180830381865afa15801561096c573d6000803e3d6000fd5b505050506040513d601f19601f820116820180604052508101906109909190612c05565b6109cf576040517f08c379a00000000000000000000000000000000000000000000000000000000081526004016109c690612c7e565b60405180910390fd5b6109d98483611110565b6109e38585610a87565b5050505050565b6109f43382611235565b6109fd57600080fd5b610a088383836112ca565b505050565b6000610a1883610bc4565b8210610a2357600080fd5b600660008473ffffffffffffffffffffffffffffffffffffffff1673ffffffffffffffffffffffffffffffffffffffff1681526020019081526020016000208281548110610a7457610a73612c9e565b5b9060005260206000200154905092915050565b60008054906101000a900473ffffffffffffffffffffffffffffffffffffffff1673ffffffffffffffffffffffffffffffffffffffff163373ffffffffffffffffffffffffffffffffffffffff1614610b15576040517f08c379a0000000000000000000000000000000000000000000000000000000008152600401610b0c906128e7565b60405180910390fd5b610b1f82826112ee565b610b288161130f565b5050565b610b4783838360405180602001604052806000815250610e04565b505050565b6000610b56610861565b8210610b6157600080fd5b60088281548110610b7557610b74612c9e565b5b90600052602060002001549050919050565b60006002600083815260200190815260200160002060009054906101000a900473ffffffffffffffffffffffffffffffffffffffff169050919050565b6000610c0d600460008473ffffffffffffffffffffffffffffffffffffffff1673ffffffffffffffffffffffffffffffffffffffff1681526020019081526020016000206113a5565b9050919050565b60008060009054906101000a900473ffffffffffffffffffffffffffffffffffffffff16905090565b606060108054610c4c90612792565b80601f0160208091040260200160405190810160405280929190818152602001828054610c7890612792565b8015610cc55780601f10610c9a57610100808354040283529160200191610cc5565b820191906000526020600020905b815481529060010190602001808311610ca857829003601f168201915b5050505050905090565b3373ffffffffffffffffffffffffffffffffffffffff168273ffffffffffffffffffffffffffffffffffffffff1603610d0757600080fd5b80600560003373ffffffffffffffffffffffffffffffffffffffff1673ffffffffffffffffffffffffffffffffffffffff16815260200190815260200160002060008473ffffffffffffffffffffffffffffffffffffffff1673ffffffffffffffffffffffffffffffffffffffff16815260200190815260200160002060006101000a81548160ff0219169083151502179055508173ffffffffffffffffffffffffffffffffffffffff163373ffffffffffffffffffffffffffffffffffffffff167f17307eab39ab6107e8899845ad3d59bd9653f200f220920489ca2b5937696c3183604051610df89190612007565b60405180910390a35050565b610e0f8484846109ea565b610e1b848484846113b3565b610e2457600080fd5b50505050565b6060610e35826114bb565b610e3e57600080fd5b601260008381526020019081526020016000208054610e5c90612792565b80601f0160208091040260200160405190810160405280929190818152602001828054610e8890612792565b8015610ed55780601f10610eaa57610100808354040283529160200191610ed5565b820191906000526020600020905b815481529060010190602001808311610eb857829003601f168201915b50505050509050919050565b606060118054610ef090612792565b80601f0160208091040260200160405190810160405280929190818152602001828054610f1c90612792565b8015610f695780601f10610f3e57610100808354040283529160200191610f69565b820191906000526020600020905b815481529060010190602001808311610f4c57829003601f168201915b5050505050905090565b6000600560008473ffffffffffffffffffffffffffffffffffffffff1673ffffffffffffffffffffffffffffffffffffffff16815260200190815260200160002060008373ffffffffffffffffffffffffffffffffffffffff1673ffffffffffffffffffffffffffffffffffffffff16815260200190815260200160002060009054906101000a900460ff16905092915050565b60008054906101000a900473ffffffffffffffffffffffffffffffffffffffff1673ffffffffffffffffffffffffffffffffffffffff163373ffffffffffffffffffffffffffffffffffffffff1614611095576040517f08c379a000000000000000000000000000000000000000000000000000000000815260040161108c906128e7565b60405180910390fd5b600073ffffffffffffffffffffffffffffffffffffffff168173ffffffffffffffffffffffffffffffffffffffff1603611104576040517f08c379a00000000000000000000000000000000000000000000000000000000081526004016110fb90612d19565b60405180910390fd5b61110d8161152d565b50565b60008160405160200161112391906129b2565b604051602081830303815290604052805190602001209050604051806060016040528060145481526020013373ffffffffffffffffffffffffffffffffffffffff16815260200184815250601560008381526020019081526020016000206000820151816000015560208201518160010160006101000a81548173ffffffffffffffffffffffffffffffffffffffff021916908373ffffffffffffffffffffffffffffffffffffffff16021790555060408201518160020155905050601460008154809291906111f290612d68565b91905055507f01d5f9f5a890e5385b4f1d07d3c8c1f739f82bb433ed461d4551b7af3edc63408133604051611228929190612dc9565b60405180910390a1505050565b60008061124183610b87565b90508073ffffffffffffffffffffffffffffffffffffffff168473ffffffffffffffffffffffffffffffffffffffff1614806112b057508373ffffffffffffffffffffffffffffffffffffffff1661129884610553565b73ffffffffffffffffffffffffffffffffffffffff16145b806112c157506112c08185610f73565b5b91505092915050565b6112d58383836115c9565b6112df838261174d565b6112e9828261190b565b505050565b6112f882826119cf565b611302828261190b565b61130b81611b80565b5050565b611318816114bb565b611357576040517f08c379a000000000000000000000000000000000000000000000000000000000815260040161134e90612e3e565b60405180910390fd5b601161136282611bc9565b604051602001611373929190612f32565b6040516020818303038152906040526012600083815260200190815260200160002090816113a191906130ed565b5050565b600081600001549050919050565b60006113d48473ffffffffffffffffffffffffffffffffffffffff16611c97565b6113e157600190506114b3565b60008473ffffffffffffffffffffffffffffffffffffffff1663150b7a02338887876040518563ffffffff1660e01b81526004016114229493929190613214565b6020604051808303816000875af1158015611441573d6000803e3d6000fd5b505050506040513d601f19601f820116820180604052508101906114659190613275565b905063150b7a0260e01b7bffffffffffffffffffffffffffffffffffffffffffffffffffffffff1916817bffffffffffffffffffffffffffffffffffffffffffffffffffffffff1916149150505b949350505050565b6000806002600084815260200190815260200160002060009054906101000a900473ffffffffffffffffffffffffffffffffffffffff169050600073ffffffffffffffffffffffffffffffffffffffff168173ffffffffffffffffffffffffffffffffffffffff161415915050919050565b7f06efdecdd31c4bac6304b013412b81d6c3cccf803b5808a2e6f07374bd3001d060008054906101000a900473ffffffffffffffffffffffffffffffffffffffff168260405161157e9291906132a2565b60405180910390a1806000806101000a81548173ffffffffffffffffffffffffffffffffffffffff021916908373ffffffffffffffffffffffffffffffffffffffff16021790555050565b6115d38382611235565b6115dc57600080fd5b600073ffffffffffffffffffffffffffffffffffffffff168273ffffffffffffffffffffffffffffffffffffffff160361164b576040517f08c379a000000000000000000000000000000000000000000000000000000000815260040161164290613317565b60405180910390fd5b61165481611cba565b816002600083815260200190815260200160002060006101000a81548173ffffffffffffffffffffffffffffffffffffffff021916908373ffffffffffffffffffffffffffffffffffffffff1602179055506116ed600460008573ffffffffffffffffffffffffffffffffffffffff1673ffffffffffffffffffffffffffffffffffffffff168152602001908152602001600020611d78565b808273ffffffffffffffffffffffffffffffffffffffff168473ffffffffffffffffffffffffffffffffffffffff167fddf252ad1be2c89b69c2b068fc378daa952ba7f163c4a11628f55a4df523b3ef60405160405180910390a4505050565b60006117a56001600660008673ffffffffffffffffffffffffffffffffffffffff1673ffffffffffffffffffffffffffffffffffffffff16815260200190815260200160002080549050611dd490919063ffffffff16565b90506000600760008481526020019081526020016000205490508181146118a0576000600660008673ffffffffffffffffffffffffffffffffffffffff1673ffffffffffffffffffffffffffffffffffffffff168152602001908152602001600020838154811061181957611818612c9e565b5b9060005260206000200154905080600660008773ffffffffffffffffffffffffffffffffffffffff1673ffffffffffffffffffffffffffffffffffffffff168152602001908152602001600020838154811061187857611877612c9e565b5b9060005260206000200181905550816007600083815260200190815260200160002081905550505b600660008573ffffffffffffffffffffffffffffffffffffffff1673ffffffffffffffffffffffffffffffffffffffff1681526020019081526020016000208054806118ef576118ee613337565b5b6001900381819060005260206000200160009055905550505050565b600660008373ffffffffffffffffffffffffffffffffffffffff1673ffffffffffffffffffffffffffffffffffffffff168152602001908152602001600020805490506007600083815260200190815260200160002081905550600660008373ffffffffffffffffffffffffffffffffffffffff1673ffffffffffffffffffffffffffffffffffffffff1681526020019081526020016000208190806001815401808255809150506001900390600052602060002001600090919091909150555050565b6119d8816114bb565b15611a18576040517f08c379a0000000000000000000000000000000000000000000000000000000008152600401611a0f906133b2565b60405180910390fd5b600073ffffffffffffffffffffffffffffffffffffffff168273ffffffffffffffffffffffffffffffffffffffff1603611a87576040517f08c379a0000000000000000000000000000000000000000000000000000000008152600401611a7e90613317565b60405180910390fd5b816002600083815260200190815260200160002060006101000a81548173ffffffffffffffffffffffffffffffffffffffff021916908373ffffffffffffffffffffffffffffffffffffffff160217905550611b20600460008473ffffffffffffffffffffffffffffffffffffffff1673ffffffffffffffffffffffffffffffffffffffff168152602001908152602001600020611dea565b808273ffffffffffffffffffffffffffffffffffffffff16600073ffffffffffffffffffffffffffffffffffffffff167fddf252ad1be2c89b69c2b068fc378daa952ba7f163c4a11628f55a4df523b3ef60405160405180910390a45050565b6008805490506009600083815260200190815260200160002081905550600881908060018154018082558091505060019003906000526020600020016000909190919091505550565b606060006001611bd884611e00565b01905060008167ffffffffffffffff811115611bf757611bf6612287565b5b6040519080825280601f01601f191660200182016040528015611c295781602001600182028036833780820191505090505b509050600082602001820190505b600115611c8c578080600190039150507f3031323334353637383961626364656600000000000000000000000000000000600a86061a8153600a8581611c8057611c7f6133d2565b5b04945060008503611c37575b819350505050919050565b6000808273ffffffffffffffffffffffffffffffffffffffff163b119050919050565b600073ffffffffffffffffffffffffffffffffffffffff166003600083815260200190815260200160002060009054906101000a900473ffffffffffffffffffffffffffffffffffffffff1673ffffffffffffffffffffffffffffffffffffffff1614611d755760006003600083815260200190815260200160002060006101000a81548173ffffffffffffffffffffffffffffffffffffffff021916908373ffffffffffffffffffffffffffffffffffffffff1602179055505b50565b60008160000154905060008111611dc4576040517f08c379a0000000000000000000000000000000000000000000000000000000008152600401611dbb9061344d565b60405180910390fd5b6001810382600001819055505050565b60008183611de2919061346d565b905092915050565b6001816000016000828254019250508190555050565b600080600090507a184f03e93ff9f4daa797ed6e38ed64bf6a1f0100000000000000008310611e5e577a184f03e93ff9f4daa797ed6e38ed64bf6a1f0100000000000000008381611e5457611e536133d2565b5b0492506040810190505b6d04ee2d6d415b85acef81000000008310611e9b576d04ee2d6d415b85acef81000000008381611e9157611e906133d2565b5b0492506020810190505b662386f26fc100008310611eca57662386f26fc100008381611ec057611ebf6133d2565b5b0492506010810190505b6305f5e1008310611ef3576305f5e1008381611ee957611ee86133d2565b5b0492506008810190505b6127108310611f18576127108381611f0e57611f0d6133d2565b5b0492506004810190505b60648310611f3b5760648381611f3157611f306133d2565b5b0492506002810190505b600a8310611f4a576001810190505b80915050919050565b6000604051905090565b600080fd5b600080fd5b60007fffffffff0000000000000000000000000000000000000000000000000000000082169050919050565b611f9c81611f67565b8114611fa757600080fd5b50565b600081359050611fb981611f93565b92915050565b600060208284031215611fd557611fd4611f5d565b5b6000611fe384828501611faa565b91505092915050565b60008115159050919050565b61200181611fec565b82525050565b600060208201905061201c6000830184611ff8565b92915050565b600081519050919050565b600082825260208201905092915050565b60005b8381101561205c578082015181840152602081019050612041565b60008484015250505050565b6000601f19601f8301169050919050565b600061208482612022565b61208e818561202d565b935061209e81856020860161203e565b6120a781612068565b840191505092915050565b600060208201905081810360008301526120cc8184612079565b905092915050565b6000819050919050565b6120e7816120d4565b81146120f257600080fd5b50565b600081359050612104816120de565b92915050565b6000602082840312156121205761211f611f5d565b5b600061212e848285016120f5565b91505092915050565b600073ffffffffffffffffffffffffffffffffffffffff82169050919050565b600061216282612137565b9050919050565b61217281612157565b82525050565b600060208201905061218d6000830184612169565b92915050565b61219c81612157565b81146121a757600080fd5b50565b6000813590506121b981612193565b92915050565b600080604083850312156121d6576121d5611f5d565b5b60006121e4858286016121aa565b92505060206121f5858286016120f5565b9150509250929050565b61220881611fec565b811461221357600080fd5b50565b600081359050612225816121ff565b92915050565b60006020828403121561224157612240611f5d565b5b600061224f84828501612216565b91505092915050565b612261816120d4565b82525050565b600060208201905061227c6000830184612258565b92915050565b600080fd5b7f4e487b7100000000000000000000000000000000000000000000000000000000600052604160045260246000fd5b6122bf82612068565b810181811067ffffffffffffffff821117156122de576122dd612287565b5b80604052505050565b60006122f1611f53565b90506122fd82826122b6565b919050565b60006040828403121561231857612317612282565b5b61232260406122e7565b90506000612332848285016120f5565b6000830152506020612346848285016120f5565b60208301525092915050565b600080fd5b600067ffffffffffffffff82111561237257612371612287565b5b602082029050919050565b600080fd5b600061239561239084612357565b6122e7565b905080602084028301858111156123af576123ae61237d565b5b835b818110156123d857806123c488826120f5565b8452602084019350506020810190506123b1565b5050509392505050565b600082601f8301126123f7576123f6612352565b5b6002612404848285612382565b91505092915050565b60006080828403121561242357612422612282565b5b61242d60406122e7565b9050600061243d848285016123e2565b6000830152506040612451848285016123e2565b60208301525092915050565b6000610100828403121561247457612473612282565b5b61247e60606122e7565b9050600061248e84828501612302565b60008301525060406124a28482850161240d565b60208301525060c06124b684828501612302565b60408301525092915050565b60008060008061018085870312156124dd576124dc611f5d565b5b60006124eb878288016121aa565b94505060206124fc878288016120f5565b935050604061250d8782880161245d565b92505061014061251f878288016123e2565b91505092959194509250565b60008060006060848603121561254457612543611f5d565b5b6000612552868287016121aa565b9350506020612563868287016121aa565b9250506040612574868287016120f5565b9150509250925092565b60006020828403121561259457612593611f5d565b5b60006125a2848285016121aa565b91505092915050565b600080604083850312156125c2576125c1611f5d565b5b60006125d0858286016121aa565b92505060206125e185828601612216565b9150509250929050565b600080fd5b600067ffffffffffffffff82111561260b5761260a612287565b5b61261482612068565b9050602081019050919050565b82818337600083830152505050565b600061264361263e846125f0565b6122e7565b90508281526020810184848401111561265f5761265e6125eb565b5b61266a848285612621565b509392505050565b600082601f83011261268757612686612352565b5b8135612697848260208601612630565b91505092915050565b600080600080608085870312156126ba576126b9611f5d565b5b60006126c8878288016121aa565b94505060206126d9878288016121aa565b93505060406126ea878288016120f5565b925050606085013567ffffffffffffffff81111561270b5761270a611f62565b5b61271787828801612672565b91505092959194509250565b6000806040838503121561273a57612739611f5d565b5b6000612748858286016121aa565b9250506020612759858286016121aa565b9150509250929050565b7f4e487b7100000000000000000000000000000000000000000000000000000000600052602260045260246000fd5b600060028204905060018216806127aa57607f821691505b6020821081036127bd576127bc612763565b5b50919050565b7f546869732061646472657373206f776e732074686520746f6b656e0000000000600082015250565b60006127f9601b8361202d565b9150612804826127c3565b602082019050919050565b60006020820190508181036000830152612828816127ec565b9050919050565b7f4e6f7420616c6c6f776564000000000000000000000000000000000000000000600082015250565b6000612865600b8361202d565b91506128708261282f565b602082019050919050565b6000602082019050818103600083015261289481612858565b9050919050565b7f4f6e6c79206f776e657200000000000000000000000000000000000000000000600082015250565b60006128d1600a8361202d565b91506128dc8261289b565b602082019050919050565b60006020820190508181036000830152612900816128c4565b9050919050565b600060029050919050565b600081905092915050565b6000819050919050565b612930816120d4565b82525050565b60006129428383612927565b60208301905092915050565b6000602082019050919050565b61296481612907565b61296e8184612912565b92506129798261291d565b8060005b838110156129aa5781516129918782612936565b965061299c8361294e565b92505060018101905061297d565b505050505050565b60006129be828461295b565b60408201915081905092915050565b7f536f6c7574696f6e20616c726561647920757365640000000000000000000000600082015250565b6000612a0360158361202d565b9150612a0e826129cd565b602082019050919050565b60006020820190508181036000830152612a32816129f6565b9050919050565b612a42816120d4565b82525050565b604082016000820151612a5e6000850182612a39565b506020820151612a716020850182612a39565b50505050565b600081905092915050565b6000612a8e8383612a39565b60208301905092915050565b612aa381612907565b612aad8184612a77565b9250612ab88261291d565b8060005b83811015612ae9578151612ad08782612a82565b9650612adb8361294e565b925050600181019050612abc565b505050505050565b608082016000820151612b076000850182612a9a565b506020820151612b1a6040850182612a9a565b50505050565b61010082016000820151612b376000850182612a48565b506020820151612b4a6040850182612af1565b506040820151612b5d60c0850182612a48565b50505050565b600081905092915050565b612b7781612907565b612b818184612b63565b9250612b8c8261291d565b8060005b83811015612bbd578151612ba48782612a82565b9650612baf8361294e565b925050600181019050612b90565b505050505050565b600061014082019050612bdb6000830185612b20565b612be9610100830184612b6e565b9392505050565b600081519050612bff816121ff565b92915050565b600060208284031215612c1b57612c1a611f5d565b5b6000612c2984828501612bf0565b91505092915050565b7f496e76616c696420736f6c7574696f6e00000000000000000000000000000000600082015250565b6000612c6860108361202d565b9150612c7382612c32565b602082019050919050565b60006020820190508181036000830152612c9781612c5b565b9050919050565b7f4e487b7100000000000000000000000000000000000000000000000000000000600052603260045260246000fd5b7f4e6f7420612076616c6964206164647265737300000000000000000000000000600082015250565b6000612d0360138361202d565b9150612d0e82612ccd565b602082019050919050565b60006020820190508181036000830152612d3281612cf6565b9050919050565b7f4e487b7100000000000000000000000000000000000000000000000000000000600052601160045260246000fd5b6000612d73826120d4565b91507fffffffffffffffffffffffffffffffffffffffffffffffffffffffffffffffff8203612da557612da4612d39565b5b600182019050919050565b6000819050919050565b612dc381612db0565b82525050565b6000604082019050612dde6000830185612dba565b612deb6020830184612169565b9392505050565b7f546f6b656e20646f6573206e6f74206578697374000000000000000000000000600082015250565b6000612e2860148361202d565b9150612e3382612df2565b602082019050919050565b60006020820190508181036000830152612e5781612e1b565b9050919050565b600081905092915050565b60008190508160005260206000209050919050565b60008154612e8b81612792565b612e958186612e5e565b94506001821660008114612eb05760018114612ec557612ef8565b60ff1983168652811515820286019350612ef8565b612ece85612e69565b60005b83811015612ef057815481890152600182019150602081019050612ed1565b838801955050505b50505092915050565b6000612f0c82612022565b612f168185612e5e565b9350612f2681856020860161203e565b80840191505092915050565b6000612f3e8285612e7e565b9150612f4a8284612f01565b91508190509392505050565b60006020601f8301049050919050565b600082821b905092915050565b600060088302612fa37fffffffffffffffffffffffffffffffffffffffffffffffffffffffffffffffff82612f66565b612fad8683612f66565b95508019841693508086168417925050509392505050565b6000819050919050565b6000612fea612fe5612fe0846120d4565b612fc5565b6120d4565b9050919050565b6000819050919050565b61300483612fcf565b61301861301082612ff1565b848454612f73565b825550505050565b600090565b61302d613020565b613038818484612ffb565b505050565b5b8181101561305c57613051600082613025565b60018101905061303e565b5050565b601f8211156130a15761307281612e69565b61307b84612f56565b8101602085101561308a578190505b61309e61309685612f56565b83018261303d565b50505b505050565b600082821c905092915050565b60006130c4600019846008026130a6565b1980831691505092915050565b60006130dd83836130b3565b9150826002028217905092915050565b6130f682612022565b67ffffffffffffffff81111561310f5761310e612287565b5b6131198254612792565b613124828285613060565b600060209050601f8311600181146131575760008415613145578287015190505b61314f85826130d1565b8655506131b7565b601f19841661316586612e69565b60005b8281101561318d57848901518255600182019150602085019450602081019050613168565b868310156131aa57848901516131a6601f8916826130b3565b8355505b6001600288020188555050505b505050505050565b600081519050919050565b600082825260208201905092915050565b60006131e6826131bf565b6131f081856131ca565b935061320081856020860161203e565b61320981612068565b840191505092915050565b60006080820190506132296000830187612169565b6132366020830186612169565b6132436040830185612258565b818103606083015261325581846131db565b905095945050505050565b60008151905061326f81611f93565b92915050565b60006020828403121561328b5761328a611f5d565b5b600061329984828501613260565b91505092915050565b60006040820190506132b76000830185612169565b6132c46020830184612169565b9392505050565b7f496e76616c696420616464726573730000000000000000000000000000000000600082015250565b6000613301600f8361202d565b915061330c826132cb565b602082019050919050565b60006020820190508181036000830152613330816132f4565b9050919050565b7f4e487b7100000000000000000000000000000000000000000000000000000000600052603160045260246000fd5b7f546f6b656e20616c726561647920657869737473000000000000000000000000600082015250565b600061339c60148361202d565b91506133a782613366565b602082019050919050565b600060208201905081810360008301526133cb8161338f565b9050919050565b7f4e487b7100000000000000000000000000000000000000000000000000000000600052601260045260246000fd5b7f436f756e7465723a2064656372656d656e74206f766572666c6f770000000000600082015250565b6000613437601b8361202d565b915061344282613401565b602082019050919050565b600060208201905081810360008301526134668161342a565b9050919050565b6000613478826120d4565b9150613483836120d4565b925082820390508181111561349b5761349a612d39565b5b9291505056fea2646970667358221220a661d5962142a6a04ee55afb2562f965cb9b906fa8cc87bb1c4af4e616088bf664736f6c6343000811003368747470733a2f2f73332d75732d776573742d322e616d617a6f6e6177732e636f6d2f756461636974792d626c6f636b636861696e2f63617073746f6e652f",
  "immutableReferences": {},
  "source": "// SPDX-License-Identifier: MIT\r\npragma solidity ^0.8.17;\r\n\r\n// TODO define a contract call to the zokrates generated solidity contract <Verifier> or <renamedVerifier>\r\nimport \"./ERC721Mintable.sol\";\r\nimport \"./Verifier.sol\";\r\n\r\n// TODO define another contract named SolnSquareVerifier that inherits from your ERC721Mintable class\r\ncontract SolnSquareVerifier is ERC721Mintable {\r\n\r\n    Verifier verifier;\r\n\r\n    // TODO define a solutions struct that can hold an index & an address\r\n    struct Solution {\r\n        uint256 index;\r\n        address account;\r\n        uint256 tokenId;\r\n    }\r\n\r\n    uint256 solutionIndex = 1;\r\n\r\n    // TODO define an array of the above struct\r\n    // Solution[] private solutions;\r\n\r\n    // TODO define a mapping to store unique solutions submitted\r\n    mapping(bytes32 => Solution) private solutions;\r\n\r\n    // TODO Create an event to emit when a solution is added\r\n    event SolutionAdded(bytes32 solutionKey, address account);\r\n\r\n    constructor(address verifierAddress) {\r\n        verifier = Verifier(verifierAddress);\r\n    }\r\n\r\n    // TODO Create a function to add the solutions to the array and emit the event\r\n    function _addSolution(uint256 tokenId, uint[2] memory input) internal {\r\n        bytes32 solutionKey = keccak256(abi.encodePacked(input));\r\n        solutions[solutionKey] = Solution({\r\n            index: solutionIndex,\r\n            account: msg.sender,\r\n            tokenId: tokenId\r\n        });\r\n        solutionIndex++;\r\n        emit SolutionAdded(solutionKey, msg.sender);\r\n    }\r\n\r\n    // TODO Create a function to mint new NFT only after the solution has been verified\r\n    //  - make sure the solution is unique (has not been used before)\r\n    //  - make sure you handle metadata as well as tokenSupply\r\n    function mintNFT(address to, uint256 tokenId, Verifier.Proof memory proof, uint[2] memory input) public {\r\n        bytes32 solutionKey = keccak256(abi.encodePacked(input));\r\n        require(solutions[solutionKey].index != 0, \"Solution already used\");\r\n        require(verifier.verifyTx(proof, input), \"Invalid solution\");\r\n\r\n        _addSolution(tokenId, input);\r\n        super.mint(to, tokenId);\r\n    }\r\n}\r\n  \r\n\r\n\r\n\r\n\r\n\r\n\r\n\r\n\r\n\r\n\r\n\r\n\r\n\r\n\r\n\r\n\r\n\r\n\r\n\r\n\r\n\r\n\r\n\r\n\r\n\r\n\r\n",
  "sourcePath": "C:\\Users\\Edward\\Desktop\\Project 5\\Blockchain-Capstone\\eth-contracts\\contracts\\SolnSquareVerifier.sol",
  "compiler": {
    "name": "solc",
    "version": "0.8.17+commit.8df45f5f.Emscripten.clang"
  },
  "schemaVersion": "3.4.11",
  "updatedAt": "2023-01-26T15:39:56.503Z",
  "networkType": "ethereum",
  "devdoc": {
    "kind": "dev",
    "methods": {
      "approve(address,uint256)": {
        "details": "Approves another address to transfer the given token ID"
      },
      "isApprovedForAll(address,address)": {
        "details": "Tells whether an operator is approved by a given owner",
        "params": {
          "operator": "operator address which you want to query the approval of",
          "owner": "owner address which you want to query the approval of"
        },
        "returns": {
          "_0": "bool whether the given operator is approved by the given owner"
        }
      },
      "setApprovalForAll(address,bool)": {
        "details": "Sets or unsets the approval of a given operator An operator is allowed to transfer all tokens of the sender on their behalf",
        "params": {
          "approved": "representing the status of the approval to be set",
          "to": "operator address to set the approval"
        }
      },
      "supportsInterface(bytes4)": {
        "details": "implement supportsInterface(bytes4) using a lookup table"
      },
      "tokenByIndex(uint256)": {
        "details": "Gets the token ID at a given index of all the tokens in this contract Reverts if the index is greater or equal to the total number of tokens",
        "params": {
          "index": "uint256 representing the index to be accessed of the tokens list"
        },
        "returns": {
          "_0": "uint256 token ID at the given index of the tokens list"
        }
      },
      "tokenOfOwnerByIndex(address,uint256)": {
        "details": "Gets the token ID at a given index of the tokens list of the requested owner",
        "params": {
          "index": "uint256 representing the index to be accessed of the requested tokens list",
          "owner": "address owning the tokens list to be accessed"
        },
        "returns": {
          "_0": "uint256 token ID at the given index of the tokens list owned by the requested address"
        }
      },
      "totalSupply()": {
        "details": "Gets the total amount of tokens stored by the contract",
        "returns": {
          "_0": "uint256 representing the total amount of tokens"
        }
      }
    },
    "version": 1
  },
  "userdoc": {
    "kind": "user",
    "methods": {},
    "version": 1
  }
}