{
  "contractName": "SolnSquareVerifier",
  "abi": [
    {
      "inputs": [
        {
          "internalType": "address",
          "name": "verifierAddress",
          "type": "address"
        }
      ],
      "stateMutability": "nonpayable",
      "type": "constructor"
    },
    {
      "anonymous": false,
      "inputs": [
        {
          "indexed": true,
          "internalType": "address",
          "name": "owner",
          "type": "address"
        },
        {
          "indexed": true,
          "internalType": "address",
          "name": "approved",
          "type": "address"
        },
        {
          "indexed": true,
          "internalType": "uint256",
          "name": "tokenId",
          "type": "uint256"
        }
      ],
      "name": "Approval",
      "type": "event"
    },
    {
      "anonymous": false,
      "inputs": [
        {
          "indexed": true,
          "internalType": "address",
          "name": "owner",
          "type": "address"
        },
        {
          "indexed": true,
          "internalType": "address",
          "name": "operator",
          "type": "address"
        },
        {
          "indexed": false,
          "internalType": "bool",
          "name": "approved",
          "type": "bool"
        }
      ],
      "name": "ApprovalForAll",
      "type": "event"
    },
    {
      "anonymous": false,
      "inputs": [
        {
          "indexed": false,
          "internalType": "address",
          "name": "oldOwner",
          "type": "address"
        },
        {
          "indexed": false,
          "internalType": "address",
          "name": "newOwner",
          "type": "address"
        }
      ],
      "name": "OwnerTransfered",
      "type": "event"
    },
    {
      "anonymous": false,
      "inputs": [
        {
          "indexed": false,
          "internalType": "address",
          "name": "account",
          "type": "address"
        }
      ],
      "name": "Paused",
      "type": "event"
    },
    {
      "anonymous": false,
      "inputs": [
        {
          "indexed": false,
          "internalType": "bytes32",
          "name": "solutionKey",
          "type": "bytes32"
        },
        {
          "indexed": false,
          "internalType": "address",
          "name": "account",
          "type": "address"
        },
        {
          "indexed": false,
          "internalType": "uint256",
          "name": "tokenId",
          "type": "uint256"
        }
      ],
      "name": "SolutionAdded",
      "type": "event"
    },
    {
      "anonymous": false,
      "inputs": [
        {
          "indexed": true,
          "internalType": "address",
          "name": "from",
          "type": "address"
        },
        {
          "indexed": true,
          "internalType": "address",
          "name": "to",
          "type": "address"
        },
        {
          "indexed": true,
          "internalType": "uint256",
          "name": "tokenId",
          "type": "uint256"
        }
      ],
      "name": "Transfer",
      "type": "event"
    },
    {
      "anonymous": false,
      "inputs": [
        {
          "indexed": false,
          "internalType": "address",
          "name": "account",
          "type": "address"
        }
      ],
      "name": "Unpaused",
      "type": "event"
    },
    {
      "inputs": [
        {
          "internalType": "address",
          "name": "to",
          "type": "address"
        },
        {
          "internalType": "uint256",
          "name": "tokenId",
          "type": "uint256"
        }
      ],
      "name": "approve",
      "outputs": [],
      "stateMutability": "nonpayable",
      "type": "function"
    },
    {
      "inputs": [
        {
          "internalType": "address",
          "name": "owner",
          "type": "address"
        }
      ],
      "name": "balanceOf",
      "outputs": [
        {
          "internalType": "uint256",
          "name": "",
          "type": "uint256"
        }
      ],
      "stateMutability": "view",
      "type": "function",
      "constant": true
    },
    {
      "inputs": [],
      "name": "baseTokenURI",
      "outputs": [
        {
          "internalType": "string",
          "name": "",
          "type": "string"
        }
      ],
      "stateMutability": "view",
      "type": "function",
      "constant": true
    },
    {
      "inputs": [
        {
          "internalType": "uint256",
          "name": "tokenId",
          "type": "uint256"
        }
      ],
      "name": "getApproved",
      "outputs": [
        {
          "internalType": "address",
          "name": "",
          "type": "address"
        }
      ],
      "stateMutability": "view",
      "type": "function",
      "constant": true
    },
    {
      "inputs": [
        {
          "internalType": "address",
          "name": "owner",
          "type": "address"
        },
        {
          "internalType": "address",
          "name": "operator",
          "type": "address"
        }
      ],
      "name": "isApprovedForAll",
      "outputs": [
        {
          "internalType": "bool",
          "name": "",
          "type": "bool"
        }
      ],
      "stateMutability": "view",
      "type": "function",
      "constant": true
    },
    {
      "inputs": [
        {
          "internalType": "address",
          "name": "to",
          "type": "address"
        },
        {
          "internalType": "uint256",
          "name": "tokenId",
          "type": "uint256"
        }
      ],
      "name": "mint",
      "outputs": [],
      "stateMutability": "nonpayable",
      "type": "function"
    },
    {
      "inputs": [],
      "name": "name",
      "outputs": [
        {
          "internalType": "string",
          "name": "",
          "type": "string"
        }
      ],
      "stateMutability": "view",
      "type": "function",
      "constant": true
    },
    {
      "inputs": [],
      "name": "owner",
      "outputs": [
        {
          "internalType": "address",
          "name": "",
          "type": "address"
        }
      ],
      "stateMutability": "view",
      "type": "function",
      "constant": true
    },
    {
      "inputs": [
        {
          "internalType": "uint256",
          "name": "tokenId",
          "type": "uint256"
        }
      ],
      "name": "ownerOf",
      "outputs": [
        {
          "internalType": "address",
          "name": "",
          "type": "address"
        }
      ],
      "stateMutability": "view",
      "type": "function",
      "constant": true
    },
    {
      "inputs": [
        {
          "internalType": "address",
          "name": "from",
          "type": "address"
        },
        {
          "internalType": "address",
          "name": "to",
          "type": "address"
        },
        {
          "internalType": "uint256",
          "name": "tokenId",
          "type": "uint256"
        }
      ],
      "name": "safeTransferFrom",
      "outputs": [],
      "stateMutability": "nonpayable",
      "type": "function"
    },
    {
      "inputs": [
        {
          "internalType": "address",
          "name": "from",
          "type": "address"
        },
        {
          "internalType": "address",
          "name": "to",
          "type": "address"
        },
        {
          "internalType": "uint256",
          "name": "tokenId",
          "type": "uint256"
        },
        {
          "internalType": "bytes",
          "name": "_data",
          "type": "bytes"
        }
      ],
      "name": "safeTransferFrom",
      "outputs": [],
      "stateMutability": "nonpayable",
      "type": "function"
    },
    {
      "inputs": [
        {
          "internalType": "address",
          "name": "to",
          "type": "address"
        },
        {
          "internalType": "bool",
          "name": "approved",
          "type": "bool"
        }
      ],
      "name": "setApprovalForAll",
      "outputs": [],
      "stateMutability": "nonpayable",
      "type": "function"
    },
    {
      "inputs": [
        {
          "internalType": "bool",
          "name": "pause",
          "type": "bool"
        }
      ],
      "name": "setPaused",
      "outputs": [],
      "stateMutability": "nonpayable",
      "type": "function"
    },
    {
      "inputs": [
        {
          "internalType": "bytes4",
          "name": "interfaceId",
          "type": "bytes4"
        }
      ],
      "name": "supportsInterface",
      "outputs": [
        {
          "internalType": "bool",
          "name": "",
          "type": "bool"
        }
      ],
      "stateMutability": "view",
      "type": "function",
      "constant": true
    },
    {
      "inputs": [],
      "name": "symbol",
      "outputs": [
        {
          "internalType": "string",
          "name": "",
          "type": "string"
        }
      ],
      "stateMutability": "view",
      "type": "function",
      "constant": true
    },
    {
      "inputs": [
        {
          "internalType": "uint256",
          "name": "index",
          "type": "uint256"
        }
      ],
      "name": "tokenByIndex",
      "outputs": [
        {
          "internalType": "uint256",
          "name": "",
          "type": "uint256"
        }
      ],
      "stateMutability": "view",
      "type": "function",
      "constant": true
    },
    {
      "inputs": [
        {
          "internalType": "address",
          "name": "owner",
          "type": "address"
        },
        {
          "internalType": "uint256",
          "name": "index",
          "type": "uint256"
        }
      ],
      "name": "tokenOfOwnerByIndex",
      "outputs": [
        {
          "internalType": "uint256",
          "name": "",
          "type": "uint256"
        }
      ],
      "stateMutability": "view",
      "type": "function",
      "constant": true
    },
    {
      "inputs": [
        {
          "internalType": "uint256",
          "name": "tokenId",
          "type": "uint256"
        }
      ],
      "name": "tokenURI",
      "outputs": [
        {
          "internalType": "string",
          "name": "",
          "type": "string"
        }
      ],
      "stateMutability": "view",
      "type": "function",
      "constant": true
    },
    {
      "inputs": [],
      "name": "totalSupply",
      "outputs": [
        {
          "internalType": "uint256",
          "name": "",
          "type": "uint256"
        }
      ],
      "stateMutability": "view",
      "type": "function",
      "constant": true
    },
    {
      "inputs": [
        {
          "internalType": "address",
          "name": "from",
          "type": "address"
        },
        {
          "internalType": "address",
          "name": "to",
          "type": "address"
        },
        {
          "internalType": "uint256",
          "name": "tokenId",
          "type": "uint256"
        }
      ],
      "name": "transferFrom",
      "outputs": [],
      "stateMutability": "nonpayable",
      "type": "function"
    },
    {
      "inputs": [
        {
          "internalType": "address",
          "name": "newOwner",
          "type": "address"
        }
      ],
      "name": "transferOwnership",
      "outputs": [],
      "stateMutability": "nonpayable",
      "type": "function"
    },
    {
      "inputs": [
        {
          "internalType": "uint256",
          "name": "tokenId",
          "type": "uint256"
        },
        {
          "components": [
            {
              "components": [
                {
                  "internalType": "uint256",
                  "name": "X",
                  "type": "uint256"
                },
                {
                  "internalType": "uint256",
                  "name": "Y",
                  "type": "uint256"
                }
              ],
              "internalType": "struct Pairing.G1Point",
              "name": "a",
              "type": "tuple"
            },
            {
              "components": [
                {
                  "internalType": "uint256[2]",
                  "name": "X",
                  "type": "uint256[2]"
                },
                {
                  "internalType": "uint256[2]",
                  "name": "Y",
                  "type": "uint256[2]"
                }
              ],
              "internalType": "struct Pairing.G2Point",
              "name": "b",
              "type": "tuple"
            },
            {
              "components": [
                {
                  "internalType": "uint256",
                  "name": "X",
                  "type": "uint256"
                },
                {
                  "internalType": "uint256",
                  "name": "Y",
                  "type": "uint256"
                }
              ],
              "internalType": "struct Pairing.G1Point",
              "name": "c",
              "type": "tuple"
            }
          ],
          "internalType": "struct Verifier.Proof",
          "name": "proof",
          "type": "tuple"
        },
        {
          "internalType": "uint256[2]",
          "name": "input",
          "type": "uint256[2]"
        }
      ],
      "name": "mintToken",
      "outputs": [],
      "stateMutability": "nonpayable",
      "type": "function"
    }
  ],
  "bytecode": "0x60806040526001600f553480156200001657600080fd5b5060405162003c6738038062003c6783398181016040528101906200003c919062000375565b6040518060400160405280601081526020017f5265616c20537461746520546f6b656e000000000000000000000000000000008152506040518060400160405280600381526020017f52535400000000000000000000000000000000000000000000000000000000008152506040518060600160405280603f815260200162003c28603f9139620000d333620001ce60201b60201c565b60008060146101000a81548160ff021916908315150217905550620001056301ffc9a760e01b6200026c60201b60201c565b6200011d6380ac58cd60e01b6200026c60201b60201c565b6200013563780e9d6360e01b6200026c60201b60201c565b82600a908162000146919062000621565b5081600b908162000158919062000621565b5080600c90816200016a919062000621565b5062000183635b5e139f60e01b6200026c60201b60201c565b50505080600e60006101000a81548173ffffffffffffffffffffffffffffffffffffffff021916908373ffffffffffffffffffffffffffffffffffffffff1602179055505062000746565b7f06efdecdd31c4bac6304b013412b81d6c3cccf803b5808a2e6f07374bd3001d060008054906101000a900473ffffffffffffffffffffffffffffffffffffffff16826040516200022192919062000719565b60405180910390a1806000806101000a81548173ffffffffffffffffffffffffffffffffffffffff021916908373ffffffffffffffffffffffffffffffffffffffff16021790555050565b63ffffffff60e01b817bffffffffffffffffffffffffffffffffffffffffffffffffffffffff1916036200029f57600080fd5b6001806000837bffffffffffffffffffffffffffffffffffffffffffffffffffffffff19167bffffffffffffffffffffffffffffffffffffffffffffffffffffffff1916815260200190815260200160002060006101000a81548160ff02191690831515021790555050565b600080fd5b600073ffffffffffffffffffffffffffffffffffffffff82169050919050565b60006200033d8262000310565b9050919050565b6200034f8162000330565b81146200035b57600080fd5b50565b6000815190506200036f8162000344565b92915050565b6000602082840312156200038e576200038d6200030b565b5b60006200039e848285016200035e565b91505092915050565b600081519050919050565b7f4e487b7100000000000000000000000000000000000000000000000000000000600052604160045260246000fd5b7f4e487b7100000000000000000000000000000000000000000000000000000000600052602260045260246000fd5b600060028204905060018216806200042957607f821691505b6020821081036200043f576200043e620003e1565b5b50919050565b60008190508160005260206000209050919050565b60006020601f8301049050919050565b600082821b905092915050565b600060088302620004a97fffffffffffffffffffffffffffffffffffffffffffffffffffffffffffffffff826200046a565b620004b586836200046a565b95508019841693508086168417925050509392505050565b6000819050919050565b6000819050919050565b600062000502620004fc620004f684620004cd565b620004d7565b620004cd565b9050919050565b6000819050919050565b6200051e83620004e1565b620005366200052d8262000509565b84845462000477565b825550505050565b600090565b6200054d6200053e565b6200055a81848462000513565b505050565b5b8181101562000582576200057660008262000543565b60018101905062000560565b5050565b601f821115620005d1576200059b8162000445565b620005a6846200045a565b81016020851015620005b6578190505b620005ce620005c5856200045a565b8301826200055f565b50505b505050565b600082821c905092915050565b6000620005f660001984600802620005d6565b1980831691505092915050565b6000620006118383620005e3565b9150826002028217905092915050565b6200062c82620003a7565b67ffffffffffffffff811115620006485762000647620003b2565b5b62000654825462000410565b6200066182828562000586565b600060209050601f83116001811462000699576000841562000684578287015190505b62000690858262000603565b86555062000700565b601f198416620006a98662000445565b60005b82811015620006d357848901518255600182019150602085019450602081019050620006ac565b86831015620006f35784890151620006ef601f891682620005e3565b8355505b6001600288020188555050505b505050505050565b620007138162000330565b82525050565b600060408201905062000730600083018562000708565b6200073f602083018462000708565b9392505050565b6134d280620007566000396000f3fe608060405234801561001057600080fd5b50600436106101425760003560e01c80636352211e116100b8578063a510c88c1161007c578063a510c88c14610387578063b88d4fde146103a3578063c87b56dd146103bf578063d547cfb7146103ef578063e985e9c51461040d578063f2fde38b1461043d57610142565b80636352211e146102cf57806370a08231146102ff5780638da5cb5b1461032f57806395d89b411461034d578063a22cb4651461036b57610142565b806318160ddd1161010a57806318160ddd146101fd57806323b872dd1461021b5780632f745c591461023757806340c10f191461026757806342842e0e146102835780634f6ccce71461029f57610142565b806301ffc9a71461014757806306fdde0314610177578063081812fc14610195578063095ea7b3146101c557806316c38b3c146101e1575b600080fd5b610161600480360381019061015c9190611fc0565b610459565b60405161016e9190612008565b60405180910390f35b61017f6104c1565b60405161018c91906120b3565b60405180910390f35b6101af60048036038101906101aa919061210b565b610553565b6040516101bc9190612179565b60405180910390f35b6101df60048036038101906101da91906121c0565b610590565b005b6101fb60048036038101906101f6919061222c565b61073c565b005b610205610861565b6040516102129190612268565b60405180910390f35b61023560048036038101906102309190612283565b61086e565b005b610251600480360381019061024c91906121c0565b610891565b60405161025e9190612268565b60405180910390f35b610281600480360381019061027c91906121c0565b61090b565b005b61029d60048036038101906102989190612283565b6109b0565b005b6102b960048036038101906102b4919061210b565b6109d0565b6040516102c69190612268565b60405180910390f35b6102e960048036038101906102e4919061210b565b610a0b565b6040516102f69190612179565b60405180910390f35b610319600480360381019061031491906122d6565b610a48565b6040516103269190612268565b60405180910390f35b610337610a98565b6040516103449190612179565b60405180910390f35b610355610ac1565b60405161036291906120b3565b60405180910390f35b61038560048036038101906103809190612303565b610b53565b005b6103a1600480360381019061039c9190612583565b610c88565b005b6103bd60048036038101906103b8919061268d565b610e03565b005b6103d960048036038101906103d4919061210b565b610e29565b6040516103e691906120b3565b60405180910390f35b6103f7610ee0565b60405161040491906120b3565b60405180910390f35b61042760048036038101906104229190612710565b610f72565b6040516104349190612008565b60405180910390f35b610457600480360381019061045291906122d6565b611006565b005b600060016000837bffffffffffffffffffffffffffffffffffffffffffffffffffffffff19167bffffffffffffffffffffffffffffffffffffffffffffffffffffffff1916815260200190815260200160002060009054906101000a900460ff169050919050565b6060600a80546104d09061277f565b80601f01602080910402602001604051908101604052809291908181526020018280546104fc9061277f565b80156105495780601f1061051e57610100808354040283529160200191610549565b820191906000526020600020905b81548152906001019060200180831161052c57829003601f168201915b5050505050905090565b60006003600083815260200190815260200160002060009054906101000a900473ffffffffffffffffffffffffffffffffffffffff169050919050565b600061059b82610a0b565b90508273ffffffffffffffffffffffffffffffffffffffff168173ffffffffffffffffffffffffffffffffffffffff160361060b576040517f08c379a0000000000000000000000000000000000000000000000000000000008152600401610602906127fc565b60405180910390fd5b3373ffffffffffffffffffffffffffffffffffffffff168173ffffffffffffffffffffffffffffffffffffffff16148061064b575061064a8133610f72565b5b61068a576040517f08c379a000000000000000000000000000000000000000000000000000000000815260040161068190612868565b60405180910390fd5b826003600084815260200190815260200160002060006101000a81548173ffffffffffffffffffffffffffffffffffffffff021916908373ffffffffffffffffffffffffffffffffffffffff160217905550818373ffffffffffffffffffffffffffffffffffffffff168273ffffffffffffffffffffffffffffffffffffffff167f8c5be1e5ebec7d5bd14f71427d1e84f3dd0314c0f7b2291e5b200ac8c7c3b92560405160405180910390a4505050565b60008054906101000a900473ffffffffffffffffffffffffffffffffffffffff1673ffffffffffffffffffffffffffffffffffffffff163373ffffffffffffffffffffffffffffffffffffffff16146107ca576040517f08c379a00000000000000000000000000000000000000000000000000000000081526004016107c1906128d4565b60405180910390fd5b80600060146101000a81548160ff0219169083151502179055508015610826577f62e78cea01bee320cd4e420270b5ea74000d11b0c9f74754ebdbfc544b05a258336040516108199190612179565b60405180910390a161085e565b7f5db9ee0a495bf2e6ff9c91a7834c1ba4fdd244a5e8aa4e537bd38aeae4b073aa336040516108559190612179565b60405180910390a15b50565b6000600880549050905090565b610878338261110f565b61088157600080fd5b61088c8383836111a4565b505050565b600061089c83610a48565b82106108a757600080fd5b600660008473ffffffffffffffffffffffffffffffffffffffff1673ffffffffffffffffffffffffffffffffffffffff16815260200190815260200160002082815481106108f8576108f76128f4565b5b9060005260206000200154905092915050565b60008054906101000a900473ffffffffffffffffffffffffffffffffffffffff1673ffffffffffffffffffffffffffffffffffffffff163373ffffffffffffffffffffffffffffffffffffffff1614610999576040517f08c379a0000000000000000000000000000000000000000000000000000000008152600401610990906128d4565b60405180910390fd5b6109a382826111c8565b6109ac816111e9565b5050565b6109cb83838360405180602001604052806000815250610e03565b505050565b60006109da610861565b82106109e557600080fd5b600882815481106109f9576109f86128f4565b5b90600052602060002001549050919050565b60006002600083815260200190815260200160002060009054906101000a900473ffffffffffffffffffffffffffffffffffffffff169050919050565b6000610a91600460008473ffffffffffffffffffffffffffffffffffffffff1673ffffffffffffffffffffffffffffffffffffffff16815260200190815260200160002061127f565b9050919050565b60008060009054906101000a900473ffffffffffffffffffffffffffffffffffffffff16905090565b6060600b8054610ad09061277f565b80601f0160208091040260200160405190810160405280929190818152602001828054610afc9061277f565b8015610b495780601f10610b1e57610100808354040283529160200191610b49565b820191906000526020600020905b815481529060010190602001808311610b2c57829003601f168201915b5050505050905090565b3373ffffffffffffffffffffffffffffffffffffffff168273ffffffffffffffffffffffffffffffffffffffff1603610b8b57600080fd5b80600560003373ffffffffffffffffffffffffffffffffffffffff1673ffffffffffffffffffffffffffffffffffffffff16815260200190815260200160002060008473ffffffffffffffffffffffffffffffffffffffff1673ffffffffffffffffffffffffffffffffffffffff16815260200190815260200160002060006101000a81548160ff0219169083151502179055508173ffffffffffffffffffffffffffffffffffffffff163373ffffffffffffffffffffffffffffffffffffffff167f17307eab39ab6107e8899845ad3d59bd9653f200f220920489ca2b5937696c3183604051610c7c9190612008565b60405180910390a35050565b600081604051602001610c9b91906129ce565b6040516020818303038152906040528051906020012090506000601060008381526020019081526020016000206000015414610d0c576040517f08c379a0000000000000000000000000000000000000000000000000000000008152600401610d0390612a35565b60405180910390fd5b600e60009054906101000a900473ffffffffffffffffffffffffffffffffffffffff1673ffffffffffffffffffffffffffffffffffffffff166343cd76fc84846040518363ffffffff1660e01b8152600401610d69929190612be1565b602060405180830381865afa158015610d86573d6000803e3d6000fd5b505050506040513d601f19601f82011682018060405250810190610daa9190612c21565b610de9576040517f08c379a0000000000000000000000000000000000000000000000000000000008152600401610de090612c9a565b60405180910390fd5b610df3848361128d565b610dfd338561090b565b50505050565b610e0e84848461086e565b610e1a848484846113b4565b610e2357600080fd5b50505050565b6060610e34826114bc565b610e3d57600080fd5b600d60008381526020019081526020016000208054610e5b9061277f565b80601f0160208091040260200160405190810160405280929190818152602001828054610e879061277f565b8015610ed45780601f10610ea957610100808354040283529160200191610ed4565b820191906000526020600020905b815481529060010190602001808311610eb757829003601f168201915b50505050509050919050565b6060600c8054610eef9061277f565b80601f0160208091040260200160405190810160405280929190818152602001828054610f1b9061277f565b8015610f685780601f10610f3d57610100808354040283529160200191610f68565b820191906000526020600020905b815481529060010190602001808311610f4b57829003601f168201915b5050505050905090565b6000600560008473ffffffffffffffffffffffffffffffffffffffff1673ffffffffffffffffffffffffffffffffffffffff16815260200190815260200160002060008373ffffffffffffffffffffffffffffffffffffffff1673ffffffffffffffffffffffffffffffffffffffff16815260200190815260200160002060009054906101000a900460ff16905092915050565b60008054906101000a900473ffffffffffffffffffffffffffffffffffffffff1673ffffffffffffffffffffffffffffffffffffffff163373ffffffffffffffffffffffffffffffffffffffff1614611094576040517f08c379a000000000000000000000000000000000000000000000000000000000815260040161108b906128d4565b60405180910390fd5b600073ffffffffffffffffffffffffffffffffffffffff168173ffffffffffffffffffffffffffffffffffffffff1603611103576040517f08c379a00000000000000000000000000000000000000000000000000000000081526004016110fa90612d06565b60405180910390fd5b61110c8161152e565b50565b60008061111b83610a0b565b90508073ffffffffffffffffffffffffffffffffffffffff168473ffffffffffffffffffffffffffffffffffffffff16148061118a57508373ffffffffffffffffffffffffffffffffffffffff1661117284610553565b73ffffffffffffffffffffffffffffffffffffffff16145b8061119b575061119a8185610f72565b5b91505092915050565b6111af8383836115ca565b6111b9838261174e565b6111c3828261190c565b505050565b6111d282826119d0565b6111dc828261190c565b6111e581611b81565b5050565b6111f2816114bc565b611231576040517f08c379a000000000000000000000000000000000000000000000000000000000815260040161122890612d72565b60405180910390fd5b600c61123c82611bca565b60405160200161124d929190612e66565b604051602081830303815290604052600d6000838152602001908152602001600020908161127b9190613021565b5050565b600081600001549050919050565b6000816040516020016112a091906129ce565b6040516020818303038152906040528051906020012090506040518060600160405280600f5481526020013373ffffffffffffffffffffffffffffffffffffffff16815260200184815250601060008381526020019081526020016000206000820151816000015560208201518160010160006101000a81548173ffffffffffffffffffffffffffffffffffffffff021916908373ffffffffffffffffffffffffffffffffffffffff16021790555060408201518160020155905050600f600081548092919061136f90613122565b91905055507fd54d9ef5d3801dc9b4c79ac9cb0d5ed3b9c83d168bd86bb6e937ca7df70392da8133856040516113a793929190613183565b60405180910390a1505050565b60006113d58473ffffffffffffffffffffffffffffffffffffffff16611c98565b6113e257600190506114b4565b60008473ffffffffffffffffffffffffffffffffffffffff1663150b7a02338887876040518563ffffffff1660e01b8152600401611423949392919061320f565b6020604051808303816000875af1158015611442573d6000803e3d6000fd5b505050506040513d601f19601f820116820180604052508101906114669190613270565b905063150b7a0260e01b7bffffffffffffffffffffffffffffffffffffffffffffffffffffffff1916817bffffffffffffffffffffffffffffffffffffffffffffffffffffffff1916149150505b949350505050565b6000806002600084815260200190815260200160002060009054906101000a900473ffffffffffffffffffffffffffffffffffffffff169050600073ffffffffffffffffffffffffffffffffffffffff168173ffffffffffffffffffffffffffffffffffffffff161415915050919050565b7f06efdecdd31c4bac6304b013412b81d6c3cccf803b5808a2e6f07374bd3001d060008054906101000a900473ffffffffffffffffffffffffffffffffffffffff168260405161157f92919061329d565b60405180910390a1806000806101000a81548173ffffffffffffffffffffffffffffffffffffffff021916908373ffffffffffffffffffffffffffffffffffffffff16021790555050565b6115d4838261110f565b6115dd57600080fd5b600073ffffffffffffffffffffffffffffffffffffffff168273ffffffffffffffffffffffffffffffffffffffff160361164c576040517f08c379a000000000000000000000000000000000000000000000000000000000815260040161164390613312565b60405180910390fd5b61165581611cbb565b816002600083815260200190815260200160002060006101000a81548173ffffffffffffffffffffffffffffffffffffffff021916908373ffffffffffffffffffffffffffffffffffffffff1602179055506116ee600460008573ffffffffffffffffffffffffffffffffffffffff1673ffffffffffffffffffffffffffffffffffffffff168152602001908152602001600020611d79565b808273ffffffffffffffffffffffffffffffffffffffff168473ffffffffffffffffffffffffffffffffffffffff167fddf252ad1be2c89b69c2b068fc378daa952ba7f163c4a11628f55a4df523b3ef60405160405180910390a4505050565b60006117a66001600660008673ffffffffffffffffffffffffffffffffffffffff1673ffffffffffffffffffffffffffffffffffffffff16815260200190815260200160002080549050611dd590919063ffffffff16565b90506000600760008481526020019081526020016000205490508181146118a1576000600660008673ffffffffffffffffffffffffffffffffffffffff1673ffffffffffffffffffffffffffffffffffffffff168152602001908152602001600020838154811061181a576118196128f4565b5b9060005260206000200154905080600660008773ffffffffffffffffffffffffffffffffffffffff1673ffffffffffffffffffffffffffffffffffffffff1681526020019081526020016000208381548110611879576118786128f4565b5b9060005260206000200181905550816007600083815260200190815260200160002081905550505b600660008573ffffffffffffffffffffffffffffffffffffffff1673ffffffffffffffffffffffffffffffffffffffff1681526020019081526020016000208054806118f0576118ef613332565b5b6001900381819060005260206000200160009055905550505050565b600660008373ffffffffffffffffffffffffffffffffffffffff1673ffffffffffffffffffffffffffffffffffffffff168152602001908152602001600020805490506007600083815260200190815260200160002081905550600660008373ffffffffffffffffffffffffffffffffffffffff1673ffffffffffffffffffffffffffffffffffffffff1681526020019081526020016000208190806001815401808255809150506001900390600052602060002001600090919091909150555050565b6119d9816114bc565b15611a19576040517f08c379a0000000000000000000000000000000000000000000000000000000008152600401611a10906133ad565b60405180910390fd5b600073ffffffffffffffffffffffffffffffffffffffff168273ffffffffffffffffffffffffffffffffffffffff1603611a88576040517f08c379a0000000000000000000000000000000000000000000000000000000008152600401611a7f90613312565b60405180910390fd5b816002600083815260200190815260200160002060006101000a81548173ffffffffffffffffffffffffffffffffffffffff021916908373ffffffffffffffffffffffffffffffffffffffff160217905550611b21600460008473ffffffffffffffffffffffffffffffffffffffff1673ffffffffffffffffffffffffffffffffffffffff168152602001908152602001600020611deb565b808273ffffffffffffffffffffffffffffffffffffffff16600073ffffffffffffffffffffffffffffffffffffffff167fddf252ad1be2c89b69c2b068fc378daa952ba7f163c4a11628f55a4df523b3ef60405160405180910390a45050565b6008805490506009600083815260200190815260200160002081905550600881908060018154018082558091505060019003906000526020600020016000909190919091505550565b606060006001611bd984611e01565b01905060008167ffffffffffffffff811115611bf857611bf7612348565b5b6040519080825280601f01601f191660200182016040528015611c2a5781602001600182028036833780820191505090505b509050600082602001820190505b600115611c8d578080600190039150507f3031323334353637383961626364656600000000000000000000000000000000600a86061a8153600a8581611c8157611c806133cd565b5b04945060008503611c38575b819350505050919050565b6000808273ffffffffffffffffffffffffffffffffffffffff163b119050919050565b600073ffffffffffffffffffffffffffffffffffffffff166003600083815260200190815260200160002060009054906101000a900473ffffffffffffffffffffffffffffffffffffffff1673ffffffffffffffffffffffffffffffffffffffff1614611d765760006003600083815260200190815260200160002060006101000a81548173ffffffffffffffffffffffffffffffffffffffff021916908373ffffffffffffffffffffffffffffffffffffffff1602179055505b50565b60008160000154905060008111611dc5576040517f08c379a0000000000000000000000000000000000000000000000000000000008152600401611dbc90613448565b60405180910390fd5b6001810382600001819055505050565b60008183611de39190613468565b905092915050565b6001816000016000828254019250508190555050565b600080600090507a184f03e93ff9f4daa797ed6e38ed64bf6a1f0100000000000000008310611e5f577a184f03e93ff9f4daa797ed6e38ed64bf6a1f0100000000000000008381611e5557611e546133cd565b5b0492506040810190505b6d04ee2d6d415b85acef81000000008310611e9c576d04ee2d6d415b85acef81000000008381611e9257611e916133cd565b5b0492506020810190505b662386f26fc100008310611ecb57662386f26fc100008381611ec157611ec06133cd565b5b0492506010810190505b6305f5e1008310611ef4576305f5e1008381611eea57611ee96133cd565b5b0492506008810190505b6127108310611f19576127108381611f0f57611f0e6133cd565b5b0492506004810190505b60648310611f3c5760648381611f3257611f316133cd565b5b0492506002810190505b600a8310611f4b576001810190505b80915050919050565b6000604051905090565b600080fd5b600080fd5b60007fffffffff0000000000000000000000000000000000000000000000000000000082169050919050565b611f9d81611f68565b8114611fa857600080fd5b50565b600081359050611fba81611f94565b92915050565b600060208284031215611fd657611fd5611f5e565b5b6000611fe484828501611fab565b91505092915050565b60008115159050919050565b61200281611fed565b82525050565b600060208201905061201d6000830184611ff9565b92915050565b600081519050919050565b600082825260208201905092915050565b60005b8381101561205d578082015181840152602081019050612042565b60008484015250505050565b6000601f19601f8301169050919050565b600061208582612023565b61208f818561202e565b935061209f81856020860161203f565b6120a881612069565b840191505092915050565b600060208201905081810360008301526120cd818461207a565b905092915050565b6000819050919050565b6120e8816120d5565b81146120f357600080fd5b50565b600081359050612105816120df565b92915050565b60006020828403121561212157612120611f5e565b5b600061212f848285016120f6565b91505092915050565b600073ffffffffffffffffffffffffffffffffffffffff82169050919050565b600061216382612138565b9050919050565b61217381612158565b82525050565b600060208201905061218e600083018461216a565b92915050565b61219d81612158565b81146121a857600080fd5b50565b6000813590506121ba81612194565b92915050565b600080604083850312156121d7576121d6611f5e565b5b60006121e5858286016121ab565b92505060206121f6858286016120f6565b9150509250929050565b61220981611fed565b811461221457600080fd5b50565b60008135905061222681612200565b92915050565b60006020828403121561224257612241611f5e565b5b600061225084828501612217565b91505092915050565b612262816120d5565b82525050565b600060208201905061227d6000830184612259565b92915050565b60008060006060848603121561229c5761229b611f5e565b5b60006122aa868287016121ab565b93505060206122bb868287016121ab565b92505060406122cc868287016120f6565b9150509250925092565b6000602082840312156122ec576122eb611f5e565b5b60006122fa848285016121ab565b91505092915050565b6000806040838503121561231a57612319611f5e565b5b6000612328858286016121ab565b925050602061233985828601612217565b9150509250929050565b600080fd5b7f4e487b7100000000000000000000000000000000000000000000000000000000600052604160045260246000fd5b61238082612069565b810181811067ffffffffffffffff8211171561239f5761239e612348565b5b80604052505050565b60006123b2611f54565b90506123be8282612377565b919050565b6000604082840312156123d9576123d8612343565b5b6123e360406123a8565b905060006123f3848285016120f6565b6000830152506020612407848285016120f6565b60208301525092915050565b600080fd5b600067ffffffffffffffff82111561243357612432612348565b5b602082029050919050565b600080fd5b600061245661245184612418565b6123a8565b905080602084028301858111156124705761246f61243e565b5b835b81811015612499578061248588826120f6565b845260208401935050602081019050612472565b5050509392505050565b600082601f8301126124b8576124b7612413565b5b60026124c5848285612443565b91505092915050565b6000608082840312156124e4576124e3612343565b5b6124ee60406123a8565b905060006124fe848285016124a3565b6000830152506040612512848285016124a3565b60208301525092915050565b6000610100828403121561253557612534612343565b5b61253f60606123a8565b9050600061254f848285016123c3565b6000830152506040612563848285016124ce565b60208301525060c0612577848285016123c3565b60408301525092915050565b6000806000610160848603121561259d5761259c611f5e565b5b60006125ab868287016120f6565b93505060206125bc8682870161251e565b9250506101206125ce868287016124a3565b9150509250925092565b600080fd5b600067ffffffffffffffff8211156125f8576125f7612348565b5b61260182612069565b9050602081019050919050565b82818337600083830152505050565b600061263061262b846125dd565b6123a8565b90508281526020810184848401111561264c5761264b6125d8565b5b61265784828561260e565b509392505050565b600082601f83011261267457612673612413565b5b813561268484826020860161261d565b91505092915050565b600080600080608085870312156126a7576126a6611f5e565b5b60006126b5878288016121ab565b94505060206126c6878288016121ab565b93505060406126d7878288016120f6565b925050606085013567ffffffffffffffff8111156126f8576126f7611f63565b5b6127048782880161265f565b91505092959194509250565b6000806040838503121561272757612726611f5e565b5b6000612735858286016121ab565b9250506020612746858286016121ab565b9150509250929050565b7f4e487b7100000000000000000000000000000000000000000000000000000000600052602260045260246000fd5b6000600282049050600182168061279757607f821691505b6020821081036127aa576127a9612750565b5b50919050565b7f546869732061646472657373206f776e732074686520746f6b656e0000000000600082015250565b60006127e6601b8361202e565b91506127f1826127b0565b602082019050919050565b60006020820190508181036000830152612815816127d9565b9050919050565b7f4e6f7420616c6c6f776564000000000000000000000000000000000000000000600082015250565b6000612852600b8361202e565b915061285d8261281c565b602082019050919050565b6000602082019050818103600083015261288181612845565b9050919050565b7f4f6e6c79206f776e657200000000000000000000000000000000000000000000600082015250565b60006128be600a8361202e565b91506128c982612888565b602082019050919050565b600060208201905081810360008301526128ed816128b1565b9050919050565b7f4e487b7100000000000000000000000000000000000000000000000000000000600052603260045260246000fd5b600060029050919050565b600081905092915050565b6000819050919050565b61294c816120d5565b82525050565b600061295e8383612943565b60208301905092915050565b6000602082019050919050565b61298081612923565b61298a818461292e565b925061299582612939565b8060005b838110156129c65781516129ad8782612952565b96506129b88361296a565b925050600181019050612999565b505050505050565b60006129da8284612977565b60408201915081905092915050565b7f536f6c7574696f6e20616c726561647920757365640000000000000000000000600082015250565b6000612a1f60158361202e565b9150612a2a826129e9565b602082019050919050565b60006020820190508181036000830152612a4e81612a12565b9050919050565b612a5e816120d5565b82525050565b604082016000820151612a7a6000850182612a55565b506020820151612a8d6020850182612a55565b50505050565b600081905092915050565b6000612aaa8383612a55565b60208301905092915050565b612abf81612923565b612ac98184612a93565b9250612ad482612939565b8060005b83811015612b05578151612aec8782612a9e565b9650612af78361296a565b925050600181019050612ad8565b505050505050565b608082016000820151612b236000850182612ab6565b506020820151612b366040850182612ab6565b50505050565b61010082016000820151612b536000850182612a64565b506020820151612b666040850182612b0d565b506040820151612b7960c0850182612a64565b50505050565b600081905092915050565b612b9381612923565b612b9d8184612b7f565b9250612ba882612939565b8060005b83811015612bd9578151612bc08782612a9e565b9650612bcb8361296a565b925050600181019050612bac565b505050505050565b600061014082019050612bf76000830185612b3c565b612c05610100830184612b8a565b9392505050565b600081519050612c1b81612200565b92915050565b600060208284031215612c3757612c36611f5e565b5b6000612c4584828501612c0c565b91505092915050565b7f496e76616c696420736f6c7574696f6e00000000000000000000000000000000600082015250565b6000612c8460108361202e565b9150612c8f82612c4e565b602082019050919050565b60006020820190508181036000830152612cb381612c77565b9050919050565b7f4e6f7420612076616c6964206164647265737300000000000000000000000000600082015250565b6000612cf060138361202e565b9150612cfb82612cba565b602082019050919050565b60006020820190508181036000830152612d1f81612ce3565b9050919050565b7f546f6b656e20646f6573206e6f74206578697374000000000000000000000000600082015250565b6000612d5c60148361202e565b9150612d6782612d26565b602082019050919050565b60006020820190508181036000830152612d8b81612d4f565b9050919050565b600081905092915050565b60008190508160005260206000209050919050565b60008154612dbf8161277f565b612dc98186612d92565b94506001821660008114612de45760018114612df957612e2c565b60ff1983168652811515820286019350612e2c565b612e0285612d9d565b60005b83811015612e2457815481890152600182019150602081019050612e05565b838801955050505b50505092915050565b6000612e4082612023565b612e4a8185612d92565b9350612e5a81856020860161203f565b80840191505092915050565b6000612e728285612db2565b9150612e7e8284612e35565b91508190509392505050565b60006020601f8301049050919050565b600082821b905092915050565b600060088302612ed77fffffffffffffffffffffffffffffffffffffffffffffffffffffffffffffffff82612e9a565b612ee18683612e9a565b95508019841693508086168417925050509392505050565b6000819050919050565b6000612f1e612f19612f14846120d5565b612ef9565b6120d5565b9050919050565b6000819050919050565b612f3883612f03565b612f4c612f4482612f25565b848454612ea7565b825550505050565b600090565b612f61612f54565b612f6c818484612f2f565b505050565b5b81811015612f9057612f85600082612f59565b600181019050612f72565b5050565b601f821115612fd557612fa681612d9d565b612faf84612e8a565b81016020851015612fbe578190505b612fd2612fca85612e8a565b830182612f71565b50505b505050565b600082821c905092915050565b6000612ff860001984600802612fda565b1980831691505092915050565b60006130118383612fe7565b9150826002028217905092915050565b61302a82612023565b67ffffffffffffffff81111561304357613042612348565b5b61304d825461277f565b613058828285612f94565b600060209050601f83116001811461308b5760008415613079578287015190505b6130838582613005565b8655506130eb565b601f19841661309986612d9d565b60005b828110156130c15784890151825560018201915060208501945060208101905061309c565b868310156130de57848901516130da601f891682612fe7565b8355505b6001600288020188555050505b505050505050565b7f4e487b7100000000000000000000000000000000000000000000000000000000600052601160045260246000fd5b600061312d826120d5565b91507fffffffffffffffffffffffffffffffffffffffffffffffffffffffffffffffff820361315f5761315e6130f3565b5b600182019050919050565b6000819050919050565b61317d8161316a565b82525050565b60006060820190506131986000830186613174565b6131a5602083018561216a565b6131b26040830184612259565b949350505050565b600081519050919050565b600082825260208201905092915050565b60006131e1826131ba565b6131eb81856131c5565b93506131fb81856020860161203f565b61320481612069565b840191505092915050565b6000608082019050613224600083018761216a565b613231602083018661216a565b61323e6040830185612259565b818103606083015261325081846131d6565b905095945050505050565b60008151905061326a81611f94565b92915050565b60006020828403121561328657613285611f5e565b5b60006132948482850161325b565b91505092915050565b60006040820190506132b2600083018561216a565b6132bf602083018461216a565b9392505050565b7f496e76616c696420616464726573730000000000000000000000000000000000600082015250565b60006132fc600f8361202e565b9150613307826132c6565b602082019050919050565b6000602082019050818103600083015261332b816132ef565b9050919050565b7f4e487b7100000000000000000000000000000000000000000000000000000000600052603160045260246000fd5b7f546f6b656e20616c726561647920657869737473000000000000000000000000600082015250565b600061339760148361202e565b91506133a282613361565b602082019050919050565b600060208201905081810360008301526133c68161338a565b9050919050565b7f4e487b7100000000000000000000000000000000000000000000000000000000600052601260045260246000fd5b7f436f756e7465723a2064656372656d656e74206f766572666c6f770000000000600082015250565b6000613432601b8361202e565b915061343d826133fc565b602082019050919050565b6000602082019050818103600083015261346181613425565b9050919050565b6000613473826120d5565b915061347e836120d5565b9250828203905081811115613496576134956130f3565b5b9291505056fea2646970667358221220cf377e6f8bc085a4c68c5ab1f9722bd694c4a87440dd1b2611e9781688d70aa264736f6c6343000811003368747470733a2f2f73332d75732d776573742d322e616d617a6f6e6177732e636f6d2f756461636974792d626c6f636b636861696e2f63617073746f6e652f",
  "immutableReferences": {},
  "source": "// SPDX-License-Identifier: MIT\r\npragma solidity ^0.8.17;\r\n\r\n// TODO define a contract call to the zokrates generated solidity contract <Verifier> or <renamedVerifier>\r\nimport \"./ERC721Mintable.sol\";\r\nimport \"./Verifier.sol\";\r\n\r\n// TODO define another contract named SolnSquareVerifier that inherits from your ERC721Mintable class\r\ncontract SolnSquareVerifier is ERC721Mintable {\r\n\r\n    Verifier verifier;\r\n\r\n    // TODO define a solutions struct that can hold an index & an address\r\n    struct Solution {\r\n        uint256 index;\r\n        address account;\r\n        uint256 tokenId;\r\n    }\r\n\r\n    uint256 solutionIndex = 1;\r\n\r\n    // TODO define an array of the above struct\r\n    // Solution[] private solutions;\r\n\r\n    // TODO define a mapping to store unique solutions submitted\r\n    mapping(bytes32 => Solution) private solutions;\r\n\r\n    // TODO Create an event to emit when a solution is added\r\n    event SolutionAdded(bytes32 solutionKey, address account, uint256 tokenId);\r\n\r\n    constructor(address verifierAddress) {\r\n        verifier = Verifier(verifierAddress);\r\n    }\r\n\r\n    // TODO Create a function to add the solutions to the array and emit the event\r\n    function _addSolution(uint256 tokenId, uint[2] memory input) internal {\r\n        bytes32 solutionKey = keccak256(abi.encodePacked(input));\r\n        solutions[solutionKey] = Solution({\r\n            index: solutionIndex,\r\n            account: msg.sender,\r\n            tokenId: tokenId\r\n        });\r\n        solutionIndex++;\r\n        emit SolutionAdded(solutionKey, msg.sender, tokenId);\r\n    }\r\n\r\n    // TODO Create a function to mint new NFT only after the solution has been verified\r\n    //  - make sure the solution is unique (has not been used before)\r\n    //  - make sure you handle metadata as well as tokenSupply\r\n    function mintToken(uint256 tokenId, Verifier.Proof memory proof, uint[2] memory input) public {\r\n        bytes32 solutionKey = keccak256(abi.encodePacked(input));\r\n        require(solutions[solutionKey].index == 0, \"Solution already used\");\r\n        require(verifier.verifyTx(proof, input), \"Invalid solution\");\r\n\r\n        _addSolution(tokenId, input);\r\n        super.mint(msg.sender, tokenId);\r\n    }\r\n}\r\n  \r\n\r\n\r\n\r\n\r\n\r\n\r\n\r\n\r\n\r\n\r\n\r\n\r\n\r\n\r\n\r\n\r\n\r\n\r\n\r\n\r\n\r\n\r\n\r\n\r\n\r\n\r\n",
  "sourcePath": "C:\\Users\\Edward\\Desktop\\Project5\\Blockchain-Capstone\\contracts\\SolnSquareVerifier.sol",
  "compiler": {
    "name": "solc",
    "version": "0.8.17+commit.8df45f5f.Emscripten.clang"
  },
  "schemaVersion": "3.4.11",
  "updatedAt": "2023-01-31T16:49:29.094Z",
  "networkType": "ethereum",
  "devdoc": {
    "kind": "dev",
    "methods": {
      "approve(address,uint256)": {
        "details": "Approves another address to transfer the given token ID"
      },
      "isApprovedForAll(address,address)": {
        "details": "Tells whether an operator is approved by a given owner",
        "params": {
          "operator": "operator address which you want to query the approval of",
          "owner": "owner address which you want to query the approval of"
        },
        "returns": {
          "_0": "bool whether the given operator is approved by the given owner"
        }
      },
      "setApprovalForAll(address,bool)": {
        "details": "Sets or unsets the approval of a given operator An operator is allowed to transfer all tokens of the sender on their behalf",
        "params": {
          "approved": "representing the status of the approval to be set",
          "to": "operator address to set the approval"
        }
      },
      "supportsInterface(bytes4)": {
        "details": "implement supportsInterface(bytes4) using a lookup table"
      },
      "tokenByIndex(uint256)": {
        "details": "Gets the token ID at a given index of all the tokens in this contract Reverts if the index is greater or equal to the total number of tokens",
        "params": {
          "index": "uint256 representing the index to be accessed of the tokens list"
        },
        "returns": {
          "_0": "uint256 token ID at the given index of the tokens list"
        }
      },
      "tokenOfOwnerByIndex(address,uint256)": {
        "details": "Gets the token ID at a given index of the tokens list of the requested owner",
        "params": {
          "index": "uint256 representing the index to be accessed of the requested tokens list",
          "owner": "address owning the tokens list to be accessed"
        },
        "returns": {
          "_0": "uint256 token ID at the given index of the tokens list owned by the requested address"
        }
      },
      "totalSupply()": {
        "details": "Gets the total amount of tokens stored by the contract",
        "returns": {
          "_0": "uint256 representing the total amount of tokens"
        }
      }
    },
    "version": 1
  },
  "userdoc": {
    "kind": "user",
    "methods": {},
    "version": 1
  }
}